:03000000021000EB
:0C100000787FE4F6D8FD758121021047CE
:10174700D3EF9400EE9400401600000075080B7567
:0F17570009BED509FDD508FAEF1F70E41E80E129
:011766002260
:10008E00D3EF9400EE9400400A000000EF1F70F0D2
:04009E001E80ED22B1
:1017C40043BC807F0A7E0012174753DEFC43DE0CC5
:0A17D40053BCDF53A8DF43DE2022E0
:10172600E4FDFC53BCF0EF444042BCE5BC30E5FBB5
:1017360053BCDF53BCBFAFBDEFADBEFCEDAE04FF87
:011746002280
:10166F0075940275931C7592027591F075960EE440
:10167F00F595F5B2F5B190FE13E04440F075B49EC8
:09168F00E4F5B375CA04F5C922A3
:10001E003D3D3D3D3D3D3D3D3D3D20636F64652095
:10002E007374617274203D3D3D3D3D3D3D3D3D3D12
:04003E00200D0A0087
:10155E0043BA8012166F1217DE1217C4900111745F
:10156E0001F012181B1217871218081200461200EB
:10157E000312184912182E12151BD2AF121698D23A
:10158E00857BFF7A00791E12011112121912128731
:02159E0080F8D3
:10151B0043BA8090FEB6E0F090FEEDE4F090FEEA68
:10152B007470F0A3F090FEED7411F090FEF2740461
:10153B00F0A37451F090FEF0E4F0A37431F090FE40
:10154B00B5E04450F090FEFD7480F090FEE0E04476
:03155B0001F0227A
:04000300438F1022F5
:10180800438E805389F0758ACD758CD4C28DD28C65
:03181800D2A92230
:0A184900538EBF53890F438910220C
:10182E0053D1DFE4F5D375D2DC43D18043AF4022F0
:10181B00759A50438E0475D7E875D6FF438E1043E7
:03182B00AF0122E8
:1017DE0075AC1043AC4043D10275D5E875D4FF43C8
:0617EE00D10843AF082200
:0D000E00E4F5C7F5C5F5C675C380F5C4223D
:1017A60075C78075F50C75C5038FC4EEF5C375C690
:0E17B6005A75C6A57F0A7E0012174702000E64
:1016E20075C78075F50C75C5028FC4EEF5C3AF05DD
:1016F2008FC275C65A75C6A57F0A7E0012174702A9
:02170200000ED7
:1017670075C78075F50C75C5018FC4EEF5C375C6D1
:101777005A75C6A57F0A7E00121747AFC202000E30
:100CDE0060FC011203D503FA04200446046D04954A
:100CEE0004BE04E70510053A0565059005BB05E74A
:100CFE000613063F066C069906C606F30720074D37
:100D0E00077A07A707D40800082D0859088508B1E7
:100D1E0008DC09070931095B098409AD09D609FD0B
:100D2E000A240A4B0A710A960ABB0ADE0B020B242E
:100D3E000B460B670B870BA70BC60BE40C020C1EA6
:100D4E000C3A0C560C700C8A0CA40CBC0CD40CEC8B
:100D5E000D020D190D2E0D430D570D6B0D7E0D90C1
:100D6E000DA20DB40DC50DD50DE50DF50E040E122B
:100D7E000E200E2E0E3B0E480E550E610E6D0E7889
:100D8E000E830E8D0E970EA10EAB0EB40EBD0EC6BB
:100D9E000ECF0ED70EDF0EE70EEF0EF60EFD0F0482
:100DAE000F0B0F110F170F1D0F230F290F2F0F35BD
:100DBE000F3A0F3F0F440F490F4E0F530F580F5C52
:100DCE000F600F650F690F6D0F710F740F780F7C29
:0E108C00900214EBF0A3EAF0A3E9F0A3EDF05C
:10109A00E490021BF0A3F090021AF0900217E014F9
:1010AA00FF90021AE0FEC39F505A900214E0FBA37D
:1010BA00E0FAA3E0F975F002EEA4F58285F0831256
:1010CA00056FFF900218E0FCA3E0FDC39FEC95F0CA
:1010DA00402AA3E02401FFE433FEEF25E0FFEE33CC
:1010EA00FE8F828E8312056FFFC3ED9FEC95F05041
:1010FA000B90021AE0FFA3E4F0A3EFF090021AE0CB
:0C110A0004F0809790021BE0FEA3E0FFC1
:0111160022B6
:0513C200900210EFF0A5
:1013C700E4900212F0A3F0900211F0900210E0FFF7
:1013D700121726900213E02FF0900212E03EF090D1
:1013E7000211E004F0E0C3940A40E0900212E0FE2C
:1013F700A3E0FF7C007D0A12051A900212EEF0A30B
:10140700EFF07B017A017912900212E0FFA3E090DE
:0C1417000218CFF0A3EFF07D7E02108CD5
:10128700900110E0640170647F041213C290010A98
:10129700EFF07F051213C290010BEFF07F061213D8
:1012A700C290010CEFF0900111E0640170399001D8
:1012B7000DE0FF90010AE0C39F4004D2C18002C243
:1012C700C190010EE0FF90010BE0C39F4004D2C222
:1012D7008002C2C290010FE0FF90010CE0C39F4063
:0D12E70004D2C38002C2C3E4900110F022C3
:0C004600E4900258F0D2C3D2C2D2C12212
:0300530002005652
:10005600C0E0C083C082C0D075D000C006900259EF
:10006600E0FEA3E0F58BEEF58D9002587401F0D218
:0E0076008ED2ABD006D0D0D082D083D0E03274
:03001B0002164585
:10164500C0E0C083C082C0D0900258E0B4010CE471
:10165500F0C2C4758BF7758DFF8006D2C4C28EC2E9
:0A166500ABD0D0D082D083D0E032A9
:1017F400EF75F04BA42490FEE5F034E2900259F02A
:04180400A3CEF0225D
:0A185300EFB40103C2A122D2A122CA
:050F5300900210EFF018
:100F5800E4A3F0A3F0A3F0900210E0FF121726908C
:100F68000212E02FF0900211E03EF0900213E0042C
:100F7800F0E0C3940A40E0900211E0FEA3E0FF7C99
:100F8800007D0A12051A900211EEF0A3EFF0C39447
:100F980050EE9405500A9002117405F0A37450F0B5
:100FA800900212E024B0FF900211E034FAFE7C00B7
:100FB8007D2412051AAB05AA04C3EB9412EA940027
:100FC80040067A007B018003E4FAFB900212E024D9
:100FD800B0FF900211E034FAFE7C007D2412051A5D
:100FE800EF2BFBEE3AFAD3EB941EEA940040047A16
:070FF800007B1EAE02AF03F7
:010FFF0022CF
:040DDE0041010900C6
:10178700E4900000F0A3F0900082F0900102F0F0E6
:0F179700A3F0A3F0A3F0A3F0C2C7900108F022C3
:0300430002111790
:10111700C0E0C083C082C0D075D000C007E59A3058
:10112700E12F539AFD900000E4F0900102E0601A6D
:10113700A3E0FF04F074022FF582E43400F583E0A6
:10114700F59B900102E014F08007900103E4F0C2E0
:10115700C7E59A30E033539AFE900001E070219082
:101167000106E0D394804002E4F0900106E0248277
:10117700F582E43400F583E59BF0900106E004F086
:10118700900104E4F0A37432F0D007D0D0D082D01D
:0411970083D0E032EF
:03000B000215A03B
:1015A000C0E0C083C082C0D0900104E07002A3E01C
:1015B0006024900105E024FFF0900104E034FFF086
:1015C000E07002A3E0700F900106E0D394004006A3
:0F15D0009000017401F0D0D0D082D083D0E032EF
:03008B0002170455
:10170400C0E0C083C082E5AC30E10853ACFD900179
:1017140009E4F0E5AC30E00353ACFED082D083D0D2
:02172400E032B1
:0B183E008FAD900109E070FA04F02269
:101698007F107E00121767EFB4FF1990024C743365
:1016A800F0A37401F0A37465F0A37450F0A3F0A341
:0716B800F0121481020DED98
:10148100E4FFFE1217A690024CE0FDE4FFFE1216E7
:10149100E290024DE0FD7F017E001216E290024EC5
:1014A100E0FD7F027E001216E290024FE0FD7F0315
:1014B1007E001216E2900250E0FD7F047E001216BB
:1014C100E2900251E0FD7F057E001216E27D587F19
:0614D100107E000216E28D
:100DED00E4FFFE12176790024CEFF0E0FD540F7513
:100DFD00F0B8A4FF90FEF9E5F0F0A3EFF0EDC454C8
:100E0D000F75F0B8A4FFA3E5F0F0A3EFF07F017E1E
:100E1D000012176790024DEFF030E0047F01800261
:100E2D00E4FF1218537F027E0012176790024EEFF7
:100E3D00F030E011438F109001117401F0C2C3C264
:100E4D00C2C2C1800E538FEFE4900111F0D2C3D214
:100E5D00C2D2C190024EE0C313FF1217F47F037E7E
:100E6D000012176790024FEFF07F047E0012176794
:100E7D00900250EFF07F057E00121767900251EF40
:100E8D00F090024FE090010DF0900250E090010EB5
:050E9D00F0A3EFF022BC
:10161A0054656D70657261747572653A203078250B
:10162A00303478202C48756D69646974792069733F
:0B163A0020307825303478200D0A00A5
:0516BF0090025FEFF056
:1016C400E4A3F090025FE0FFA3E0C39F500F7F0A02
:0D16D4007E0012008E900260E004F080E6BF
:0116E10022E6
:10135E00E4900262F0900261F03085FD7F04121677
:10136E00BF30851F2085FD900262E0FF900261E094
:10137E00FEC374079EFEF87401088002C333D8FCC6
:10138E004F801B900262E0FF900261E0FEC3740783
:10139E009EFEF87401088002C333D8FCF45F9002FD
:1013AE0062F0900261E004F0E0C3940840AB90025A
:0313BE0062E0FFEB
:0113C1002209
:100EA200C2857F147E00121747D2857F031216BFB8
:100EB200308503020F473085FD2085FD12135E90B9
:100EC200023EEFF012135E90023FEFF012135E90BB
:100ED200023CEFF012135E90023DEFF012135E90AF
:100EE2000240EFF0D28590023DE0F990023CE0FE34
:100EF20029FD90023EE0FC2DFDA3E0FB2DB5071875
:100F0200900254ECF0A3EBF0900252EEF0A3E9F061
:100F1200900240E0900256F0900252E0FF75F00A13
:100F220084900241F0EF75F00A84A3E5F0F090029C
:100F320054E0FF75F00A84900243F0EF75F00A84E2
:100F4200A3E5F0F022E4900241F0A3F0A3F0A3F0B5
:010F5200227C
:10119B007E007F037D007B017A0279361205BA7ED1
:1011AB00007F037D007B017A0279391205BA120E9A
:1011BB00A2900241E02430900236F0900242E024EB
:1011CB0030900237F0FD900236E0FFED900263CFD6
:1011DB00F0A3EFF0900243E02430900239F090023C
:1011EB0044E0243090023AF0FD900239E0FEEDFF2E
:1011FB007BFF7A16791A900263E0FDA3E09002114F
:0E120B00CDF0A3EDF0A3EEF0A3EFF002011181
:10121900900001E064017065F07B017A00798290A9
:101229000106E024FEFD1212FAAD07AC0690010694
:10123900E0FB2480F582E43400F583E0FE74812B21
:10124900F582E43400F583E0FBEBFFE4900106F05E
:10125900EDB50729ECB50625900082E0B4351EA34B
:10126900E024FC600F24FE600E24F6600D240D704E
:0D1279000C020A5B020BC70208CD120739F8
:011286002245
:100A5B009002487403F0900086A3E025E0900247D3
:100A6B00F0900084E0FEA3E0FDEDFF90024AEEF073
:100A7B00A3EFF09000027435F0A37403F0900247DB
:100A8B00E0900004F090020EEEF0A3EFF09002471E
:100A9B00E0C313FF90024BE02FFF90024AE03400BB
:100AAB00FE90020EE0FCA3E0FDC39FEC9E40030210
:100ABB000BBDE4900246F0900245F0EC6003020B94
:100ACB007CED14604C146054147003020B621470B0
:100ADB0003020B6F24046003020B7CE4900245F0CD
:100AEB00A3E0FB90FEFBE0FEA3E0FF7C007DB812D1
:100AFB00051AEFC454F0FA90FEF9E0FEA3E0FF7C78
:100B0B00007DB812051AEA4FFFEB4F900246F080BA
:100B1B0060E4900245F020A158A38035E490024593
:100B2B00F0900259E0FEA3E0FFEF2470FFEE341DBE
:100B3B00FEE434FFFDE434FFFCE47B4BFAF9F812DE
:100B4B0014D778011205A7900246EFF0E58F30E439
:100B5B0020E04401F0801A90010EE0900245F090E5
:100B6B00010D8008E4900245F090010FE0900246E1
:100B7B00F0900245E0FF900248E0FE04F074022E74
:100B8B00F582E43400F583EFF0900246E0FF90022B
:100B9B0048E0FE04F074022EF582E43400F583EF96
:100BAB00F090020FE004F0700690020EE004F002E9
:0C0BBB000A98900247E02403FF0215DFB7
:100BC7009002487403F0900086A3E025E090024766
:100BD700F0900084E0FEA3E0FDEDFF90024AEEF006
:100BE700A3EFF09000027435F0A37404F09002476D
:100BF700E0900004F090020EEEF0A3EFF0900247B1
:100C0700E0C313FF90024BE02FFF90024AE034004D
:100C1700FE90020EE0FCA3E0FDC39FEC9E400302A2
:100C27000CD4E4900246F0900245F0EC705EED14AF
:100C3700601B14602E1460371460422404704D7FCB
:100C4700041213C2900246EFF07F05800C7F061254
:100C570013C2900246EFF07F071213C2900245EFCE
:100C6700F0802990024574AAF0A374BBF0801D7F21
:100C77000B120F53900245EFF07F0A8007E49002B2
:100C870045F07F0C120F53900246EFF0900245E0BB
:100C9700FF900248E0FE04F074022EF582E434006F
:100CA700F583EFF0900246E0FF900248E0FE04F083
:100CB70074022EF582E43400F583EFF090020FE022
:100CC70004F0700690020EE004F0020C0490024754
:070CD700E02403FF0215DF1A
:1008CD00900085E014606D147003020980147003AC
:1008DD000209DC147003020A2224046003020A5A7E
:1008ED0078027C007D017B017A0079827E007F0891
:1008FD001204DB900007E0FD540F75F0B8A4FF90D3
:10090D00FEF9E5F0F0A3EFF0EDC4540F75F0B8A4C7
:10091D00FFA3E5F0F0A3EFF09001027408F0D2C749
:10092D007F057E00121747439A02900007E0900260
:10093D004C020A5678027C007D017B017A00798297
:10094D007E007F081204DB900007E030E0047F0199
:10095D008002E4FF1218539001027408F0D2C77F91
:10096D00057E00121747439A02900007E090024D52
:10097D00020A5678027C007D017B017A0079827E25
:10098D00007F081204DB900007E0FF30E011438F79
:10099D00109001117401F0C2C3C2C2C2C1800E53C6
:1009AD008FEFE4900111F0D2C3D2C2D2C1EFC313C5
:1009BD00FF1217F49001027408F0D2C77F057E0074
:1009CD00121747439A02900007E090024E807A7802
:1009DD00027C007D017B017A0079827E007F081206
:1009ED0004DB900007E090010DF0900006E090010F
:1009FD000EF09001027408F0D2C77F057E00121729
:100A0D0047439A0290010DE090024FF090010EE0E5
:100A1D00900250803478027C007D017B017A007950
:100A2D00827E007F081204DB900007E090010FF03A
:100A3D009001027408F0D2C77F057E00121747435C
:0E0A4D009A0290010FE0900251F012148122E3
:100739009002497407F0900088E0900247F0900019
:1007490084E0FEA3E0FDEDFF90024AEEF0A3EFF096
:1007590078027C007D017B017A0079827E007F0628
:100769001204DB90024AE0FFA3E090020ECFF0A34F
:10077900EFF0900247E0C313FF90024BE02FFF9088
:10078900024AE03400FE90020EE0FCA3E0FDC39FA4
:10079900EC9E40030208A7900249E02482F582E416
:1007A9003400F583E0900245F0900249E02483F596
:1007B90082E43400F583E0900246F0EC600302081D
:1007C9008FED14604514605C1470030208651470A1
:1007D900030208832404600302088F900246E0FDA7
:1007E900540F75F0B8A4FF90FEF9E5F0F0A3EFF00F
:1007F900EDC4540F75F0B8A4FFA3E5F0F0A3EFF032
:10080900900246E090024CF0807C900246E030E095
:10081900047F018002E4FF121853900246E090021F
:100829004DF08062900246E0FF30E011438F109056
:1008390001117401F0C2C3C2C2C2C1800E538FEF4D
:10084900E4900111F0D2C3D2C2D2C1EFC313FF1297
:1008590017F4900246E090024EF0802A900246E09A
:1008690090010DF0900245E0FF90010EF090010D0E
:10087900E090024FF0A3EFF0800C900246E0900167
:100889000FF0900251F0900249E02402F090020F1B
:10089900E004F0700690020EE004F002077B7D068A
:1008A9001212F4AD07AC06EC900008F0A3EFF0903B
:1008B90001027408F0D2C77F057E00121747439AD8
:0408C9000202148192
:0612F4007B017A00790283
:0512FA00900210EDF070
:1012FF0074FFA3F0A3F0120501FF900211E0F0A319
:10130F00E06FF0E4FD900211E0FEA3E0FF30E01982
:10131F00EEC313FEEF13FFEE64A0FEEF6401FF9028
:10132F000211EEF0A3EFF0800B900211E0C313F067
:10133F00A3E013F00DEDB408CC740129F9E43AFAE7
:0E134F00900210E014F070AEA3E0FEA3E0FFE9
:01135D00226D
:0215DF00AC0757
:1015E100AD041212F4AB07AA06EAFF74022CF582CD
:1015F100E43400F583EFF0AF0374032CF582E43497
:1016010000F583EFF0EC2402900102F0D2C77F05D0
:081611007E00121747439A0204
:0116190022AE
:0A0DE20042025B000042025D0000C7
:0300A30002142321
:06142300C0E0C083C0829E
:1014290090025CE004F0700690025BE004F0900228
:101439005BE07004A3E06464700C90011004F09008
:10144900025BE4F0A3F0900108E0702590025EE0F1
:1014590004F0700690025DE004F090025DE0700413
:10146900A3E06464700B90025DF0A3F0900108049E
:01147900F082
:07147A00D082D083D0E032E4
:10100C0002155EE493A3F8E493A34003F68001F287
:10101C0008DFF48029E493A3F85407240CC8C333E5
:10102C00C4540F4420C8834004F456800146F6DFB4
:10103C00E4800B0102040810204080900CDEE47E5A
:10104C00019360BCA3FF543F30E509541FFEE493A9
:10105C00A360010ECF54C025E060A840B8E493A370
:10106C00FAE493A3F8E493A3C8C582C8CAC583CA9B
:10107C00F0A3C8C582C8CAC583CADFE9DEE780BE53
:010DEC000006
:10040B00E709F608DFFA8046E709F208DFFA803ED3
:10041B0088828C83E709F0A3DFFA8032E309F608C0
:10042B00DFFA8078E309F208DFFA807088828C8328
:10043B00E309F0A3DFFA806489828A83E0A3F608DC
:10044B00DFFA805889828A83E0A3F208DFFA804CB6
:10045B0080D280FA80C680D4806980F2803380108D
:10046B0080A680EA809A80A880DA80E280CA8033F6
:10047B0089828A83ECFAE493A3C8C582C8CCC5836E
:10048B00CCF0A3C8C582C8CCC583CCDFE9DEE7803E
:10049B000D89828A83E493A3F608DFF9ECFAA9F0BD
:1004AB00EDFB2289828A83ECFAE0A3C8C582C8CC13
:1004BB00C583CCF0A3C8C582C8CCC583CCDFEADE2C
:1004CB00E880DB89828A83E493A3F208DFF980CC8E
:1004DB0088F0EF60010E4E60C388F0ED2402B40487
:1004EB000050B9F582EB2402B4040050AF2323452E
:0604FB00822390045B73F4
:10050100BB010689828A83E0225002E722BBFE02F8
:09051100E32289828A83E493222B
:10051A00BC000BBE0029EF8DF084FFADF022E4CCC5
:10052A00F875F008EF2FFFEE33FEEC33FCEE9DEC8E
:10053A00984005FCEE9DFE0FD5F0E9E4CEFD22EDD4
:10054A00F8F5F0EE8420D21CFEADF075F008EF2F1E
:10055A00FFED33FD4007985006D5F0F222C398FD0F
:05056A000FD5F0EA22AC
:10056F00BB0110E58229F582E5833AF583E0F5F0CA
:10057F00A3E0225009E92582F886F008E622BBFEA7
:10058F000AE92582F8E2F5F008E222E5832AF583ED
:08059F00E993F5F0A3E99322B2
:1014D700C2D5E830E70FB2D5E4C39BFBE49AFAE440
:1014E70099F9E498F8EC30E717B2D512150D120602
:1014F70061E4C39BFBE49AFAE499F9E498F8800362
:1015070012066130D50DE4C39FFFE49EFEE49DFD06
:04151700E49CFC2232
:1005A700E8600FEFC333FFEE33FEED33FDEC33FCB2
:0305B700D8F12256
:1000A600E5082411F582E43402F583E00508229080
:1000B600020E300703900211E475F0011206F302F6
:1000C60005012000E97F2ED2008018EF540F2490FE
:1000D600D43440D4FF30040BEF24BFB41A005003CD
:1000E6002461FFE50960021509050CE50C7002059F
:1000F6000B30070E90020EE475F0011206F3EF02C4
:10010600061302183E7403D2078003E4C207F508FB
:1001160090020E12070AE4F509F50BF50CE50960E5
:10012600077F201200E980F5750AFFC201C200C2EE
:1001360002C203C205C206C2081200B5FF700D3026
:1001460007057F001200FAAF0CAE0B22B4255FC282
:10015600D5C2041200B5FF24D0B40A00501A75F0B7
:100166000A780930D50508B6FF0106C6A426F6208A
:10017600D5047002D20380D924CFB41A00EF5004FC
:10018600C2E5D2040202FBD20180C6D20080C0D2F0
:100196000280BCD2D580BAD20580B47F201200E995
:1001A6002002077401B5090040F11200A6FF1200F3
:1001B600E9020123D208D20680951200A6FB12009E
:1001C600A6FA1200A6F94A4B700679CC7A037BFF91
:1001D60020022EE509602A7E008E827583001205B4
:1001E600E660060EEE650A70F0C2D5EBC0E0EAC026
:1001F600E0E9C0E0EE120342D0E0F9D0E0FAD0E048
:10020600FB120501FF60AAEBC0E0EAC0E0E9C0E02E
:100216001200E9D0E02401F9D0E03400FAD0E0FB86
:10022600E50A0460DCD50AD980877BFF7A03793E2C
:10023600D202809C791080027908C206C208800822
:10024600D2D5790A8004790AC2D5E50A047002F586
:100256000AE4FAFDFEFF1200A6FC7B082001131239
:1002660000A6FD7B1030000A1200A6FE1200A6FFB3
:100276007B20EC3382D592D55013C3E43000069F21
:10028600FFE49EFEE42001039DFDE49CFCE4CBF824
:10029600C201EC700CCFCECDCCE824F8F870F38018
:1002A60017C3EF33FFEE33FEED33FDEC33FCEB33D8
:1002B600FB994002FB0FD8E9EB300105F8D0E0C40A
:1002C60048B201C0E00AEC4D4E4F78207B0070C268
:1002D600EAB50A0040BCC0E0120344D0F0D0E020EA
:1002E6000104C4C0E0C4B201C0F01200D2D0F0D5FF
:1002F600F0EB02012312071301C053023A58019191
:100306004C018D42023E4F02464402464901A64335
:08031600024C55023046023092
:10031E004502304703EC5001952D01992E01BC2B5F
:10032E00019D2301BA2003D52A015548000001B4CE
:10033E003F3F3F00790AA2D5200314300509B910BA
:10034E00020404B9080104A2D520060250010420BB
:10035E0002689202B509005034C0E07F20300319C4
:10036E007F30A20272067205500F12039BC202C2A8
:10037E0006C205C2087F30800F300503E9C0E012C7
:10038E0000E9300503D0E0F9D0E0B509CC3005170F
:10039E007F30B9100C1200E97F583004077F788047
:1003AE0003B908031200E93002057F2D0200E97F30
:1003BE00202008F87F2B2006F322920280CF286E91
:1003CE00756C6C2900D2011200A63001F8C20178BA
:1003DE000930D50108F60201552D50434958120037
:1003EE00A62403B405004001E49003E7931200DA5B
:0D03FE00743A1200DAD20375090402023AC3
:1005BA00EF4E6012EF60010EEDBB010B89828A8358
:1005CA00F0A3DFFCDEFA2289F05007F709DFFCA965
:0C05DA00F022BBFEFCF309DFFCA9F022BC
:1005E600BB010CE58229F582E5833AF583E02250CA
:1005F60006E92582F8E622BBFE06E92582F8E22214
:0D060600E58229F582E5833AF583E493222D
:10061300BB010689828A83F0225002F722BBFE01C6
:02062300F322C0
:1006250075F008758200EF2FFFEE33FECD33CDCC8C
:1006350033CCC58233C5829BED9AEC99E58298400F
:100645000CF582EE9BFEED9AFDEC99FC0FD5F0D6EC
:10065500E4CEFBE4CDFAE4CCF9A88222B800C1B916
:100665000059BA002DEC8BF084CFCECDFCE5F0CB54
:10067500F97818EF2FFFEE33FEED33FDEC33FCEB8D
:1006850033FB10D703994004EB99FB0FD8E5E4F948
:10069500FA227818EF2FFFEE33FEED33FDEC33FC35
:1006A500C933C910D7059BE99A4007EC9BFCE99A29
:1006B500F90FD8E0E4C9FAE4CCFB2275F010EF2F6E
:1006C500FFEE33FEED33FDCC33CCC833C810D7076E
:1006D5009BEC9AE899400AED9BFDEC9AFCE899F8A9
:0E06E5000FD5F0DAE4CDFBE4CCFAE4C8F9223C
:1006F300F8E0FBA3A3E0F925F0F0E5821582700290
:070703001583E0FA38F02233
:09070A00EBF0A3EAF0A3E9F022F0
:10071300D083D082F8E4937012740193700DA3A375
:1007230093F8740193F5828883E473740293686089
:06073300EFA3A3A380DF89
:00000001FF
