:03000000020FE804
:0C0FE800787FE4F6D8FD75812102102FFF
:1015E600D3EF9400EE9400401600000075080B75CA
:0F15F60009BED509FDD508FAEF1F70E41E80E18C
:0116050022C2
:10008E00D3EF9400EE9400400A000000EF1F70F0D2
:04009E001E80ED22B1
:1016630043BC807F0A7E001215E653DEFC43DE0C8A
:0A16730053BCDF53A8DF43DE202242
:1015A400E4FDFC53BCF0EF444042BCE5BC30E5FB39
:1015B40053BCDF53BCBFAFBDEFADBEFCEDAE04FF0B
:0115C4002204
:1015C50075940275931C7592027591F075960EE4EB
:1015D500F595F5B2F5B175B49EF5B375CA04F5C9BF
:0115E50022E3
:101519003D3D3D3D3D3D3D3D3D3D20636F64652085
:101529007374617274203D3D3D3D3D3D3D3D3D3D02
:04153900200D0A0077
:1014600043BA801215C512167D1216631216BA12EF
:1014700016261216A71216EF1216DF1213DED2AFBF
:1014800012001ED2857BFF7A157919120111120FF5
:0614900056120E2480F844
:1013DE0043BA8090FEB6E0F090FEEDE4F090FEEAA7
:1013EE007470F0A3F090FEED7411F090FEF27404A0
:1013FE00F0A37451F090FEF0E4F0A37431F090FE7F
:10140E00B5E04450F090FEFD7480F090FEE0E044B4
:03141E0001F022B8
:04000300438F1022F5
:1016A700438E805389F0758ACD758CD4C28DD28CC8
:0316B700D2A92293
:0A16FD00538EBF53890F438910225A
:1016DF0053D1DFE4F5D375D2DC43D18043AF402241
:1016BA00759A50438E0475D7E875D6FF438E10434A
:0316CA00AF01224B
:10167D0075AC1043AC4043D10275D5E875D4FF432A
:06168D00D10843AF082262
:0D000E00E4F5C7F5C5F5C675C380F5C4223D
:1016450075C78075F50C75C5038FC4EEF5C375C6F2
:0E1655005A75C6A57F0A7E001215E602000E29
:1015600075C78075F50C75C5028FC4EEF5C3AF0560
:101570008FC275C65A75C6A57F0A7E001215E6028F
:02158000000E5B
:1016060075C78075F50C75C5018FC4EEF5C375C633
:101616005A75C6A57F0A7E001215E6AFC202000EF5
:100BB70060FC011203D503FA04200446046D049572
:100BC70004BE04E70510053A0565059005BB05E772
:100BD7000613063F066C069906C606F30720074D5F
:100BE700077A07A707D40800082D0859088508B110
:100BF70008DC09070931095B098409AD09D609FD34
:100C07000A240A4B0A710A960ABB0ADE0B020B2456
:100C17000B460B670B870BA70BC60BE40C020C1ECE
:100C27000C3A0C560C700C8A0CA40CBC0CD40CECB3
:100C37000D020D190D2E0D430D570D6B0D7E0D90E9
:100C47000DA20DB40DC50DD50DE50DF50E040E1253
:100C57000E200E2E0E3B0E480E550E610E6D0E78B1
:100C67000E830E8D0E970EA10EAB0EB40EBD0EC6E3
:100C77000ECF0ED70EDF0EE70EEF0EF60EFD0F04AA
:100C87000F0B0F110F170F1D0F230F290F2F0F35E5
:100C97000F3A0F3F0F440F490F4E0F530F580F5C7A
:100CA7000F600F650F690F6D0F710F740F780F7C51
:0E107400900218EBF0A3EAF0A3E9F0A3EDF070
:10108200E490021FF0A3F090021EF090021BE01405
:10109200FF90021EE0FEC39F505A900218E0FBA38D
:1010A200E0FAA3E0F975F002EEA4F58285F083126E
:1010B200056FFF90021CE0FCA3E0FDC39FEC95F0DE
:1010C200402AA3E02401FFE433FEEF25E0FFEE33E4
:1010D200FE8F828E8312056FFFC3ED9FEC95F05059
:1010E2000B90021EE0FFA3E4F0A3EFF090021EE0DB
:0C10F20004F0809790021FE0FEA3E0FFD6
:0110FE0022CF
:05133300900214EFF030
:10133800E4900216F0A3F0900215F0900214E0FF7A
:101348001215A4900217E02FF0900216E03EF090DC
:101358000215E004F0E0C3940A40E0900216E0FEB3
:10136800A3E0FF7C007D0A12051A900216EEF0A396
:10137800EFF07B017A017912900216E0FFA3E0906A
:0C138800021CCFF0A3EFF07D7E02107479
:100E2400900110E064016003020EC17F04121333C9
:100E340090010AEFF07F0512133390010BEFF07F5E
:100E44000612133390010CEFF090024FE0B4011C32
:100E540090010DE0FF90010AE0FEC39F4002D2C161
:100E6400EF14FFEEC39F5006C2C18002D2C19002AC
:100E740050E0B4011C90010EE0FF90010BE0FEC3B2
:100E84009F4002D2C2EF14FFEEC39F5006C2C2803D
:100E940002D2C2900251E0B4011C90010FE0FF9015
:100EA400010CE0FEC39F4002D2C3EF14FFEEC39FC8
:0E0EB4005006C2C38002D2C3E4900110F022A7
:0E16EF00E490024CF0D2C3D2C2D2C1D2C422C7
:03005300021496FE
:10149600C0E0C083C082C0D075D000C00690024DA7
:1014A600E0FEA3E0F58BEEF58D90024C7401F0D2D0
:0E14B6008ED2ABD006D0D0D082D083D0E03220
:03001B000214EFDD
:1014EF00C0E0C083C082C0D090024CE0B4010CE4D5
:1014FF00F0C2C4758BF7758DFF8006D2C4C28EC241
:0A150F00ABD0D0D082D083D0E03200
:10169300EF75F04BA42490FEE5F034E290024DF098
:0416A300A3CEF022C0
:0A170700EFB40103C2A122D2A12217
:050D7700900214EFF0F2
:100D7C00E4A3F0A3F0A3F0900214E0FF1215A490EA
:100D8C000216E02FF0900215E03EF0900217E004FE
:100D9C00F0E0C3940A40E0900215E0FEA3E0FF7C73
:100DAC00007D0A12051A900215EEF0A3EFF0C39421
:100DBC0050EE9405500A9002157405F0A37450F08F
:100DCC00900216E024B0FF900215E034FAFE7C008D
:100DDC007D2412051AAB05AA04C3EB9412EA940005
:100DEC0040067A007B018003E4FAFB900216E024B3
:100DFC00B0FF900215E034FAFE7C007D2412051A37
:100E0C00EF2BFBEE3AFAD3EB941EEA940040047AF3
:070E1C00007B1EAE02AF03D4
:010E230022AC
:040CB70041010900EE
:10162600E4900000F0A3F0900082F0900102F0F048
:0F163600A3F0A3F0A3F0A3F0C2C7900108F02225
:030043000210FFA9
:1010FF00C0E0C083C082C0D075D000C007E59A3071
:10110F00E12F539AFD900000E4F0900102E0601A85
:10111F00A3E0FF04F074022FF582E43400F583E0BE
:10112F00F59B900102E014F08007900103E4F0C2F8
:10113F00C7E59A30E033539AFE900001E07021909A
:10114F000106E0D394804002E4F0900106E024828F
:10115F00F582E43400F583E59BF0900106E004F09E
:10116F00900104E4F0A37432F0D007D0D0D082D035
:04117F0083D0E03207
:03000B00021421BB
:10142100C0E0C083C082C0D0900104E07002A3E09C
:101431006024900105E024FFF0900104E034FFF006
:10144100E07002A3E0700F900106E0D39400400623
:0F1451009000017401F0D0D0D082D083D0E0326F
:03008B00021582D9
:10158200C0E0C083C082E5AC30E10853ACFD9001FD
:1015920009E4F0E5AC30E00353ACFED082D083D056
:0215A200E03235
:0B0046008FAD900109E070FA04F02279
:10001E007F107E00121606EFB4FF1790025974037C
:10002E00F0A3740FF090025C7450F0A3F0A3F012E2
:05003E001394020EC244
:10139400E4FFFE121645900259E0FDE4FFFE12152B
:1013A4006090025AE0FD7F017E0012156090025C9D
:1013B400E0FD7F037E0012156090025DE0FD7F0476
:1013C4007E0012156090025EE0FD7F057E0012151E
:0A13D400607D587F107E0002156056
:100EC200E4FFFE121606900259EFF0E075F0B8A4A6
:100ED200FFAEF090FEFBEEF0A3EFF090FEF9EEF025
:100EE200A3EFF07F017E0012160690025AEFF03057
:100EF200E0047F018002E4FF12170790025AE0FD2E
:100F0200C313540190024FF0ED13135401A3F09058
:100F1200025AE01313135401900251F07F037E0032
:100F220012160690025CEFF07F047E001216069005
:100F3200025DEFF07F057E0012160690025EEFF072
:100F420090025CE090010DF090025DE090010EF0E5
:040F5200A3EFF022F7
:1014C40054656D70657261747572653A2030782563
:1014D400303478202C48756D696469747920697397
:0B14E40020307825303478200D0A00FD
:05153D00900268EFF0D0
:10154200E4A3F0900268E0FFA3E0C39F500F7F0A7C
:0D1552007E0012008E900269E004F080E639
:01155F002269
:10126B00E490026BF090026AF03085FD7F0412155A
:10127B003D30851F2085FD90026BE0FF90026AE0F8
:10128B00FEC374079EFEF87401088002C333D8FCBA
:10129B004F801B90026BE0FF90026AE0FEC3740765
:1012AB009EFEF87401088002C333D8FCF45F9002F1
:1012BB006BF090026AE004F0E0C3940840AB90023C
:0312CB006BE0FFD6
:0112CE0022FD
:100CC600C2857F147E001215E6D2857F0312153D7C
:100CD600308503020D6B3085FD2085FD12126B9069
:100CE6000244EFF012126B900245EFF012126B9075
:100CF6000242EFF012126B900243EFF012126B9069
:100D06000246EFF0D285900243E0F9900242E0FEFF
:100D160029FD900244E0FC2DFDA3E0FB2DB507184C
:100D2600900261ECF0A3EBF090025FEEF0A3E9F025
:100D3600900246E0900263F090025FE0FF75F00AD1
:100D460084900247F0EF75F00A84A3E5F0F0900274
:100D560061E0FF75F00A84900249F0EF75F00A84AD
:100D6600A3E5F0F022E4900247F0A3F0A3F0A3F08D
:010D7600225A
:101183007E007F037D007B017A02793C1205A77EF6
:10119300007F037D007B017A02793F1205A7120CC1
:1011A300C6900247E0243090023CF0900248E024CD
:1011B3003090023DF0FD90023CE0FFED90026CCFD9
:1011C300F0A3EFF0900249E0243090023FF0900248
:1011D3004AE02430900240F0FD90023FE0FEEDFF34
:1011E3007BFF7A1479C490026CE0FDA3E0900217B0
:0E11F300CDF0A3EDF0A3EEF0A3EFF00201119A
:1016CD0048455245200D0A002068657265200D0AB7
:0216DD002000EB
:100F5600900001E064016003020FE7F07B017A0074
:100F66007982900106E024FEFD12120790020EEE31
:100F7600F0A3EFF0900106E0FD2481F582E4340051
:100F8600F583E0FE74802DF582E43400F583E0FD00
:100F9600EDFF900210EEF0A3EFF0E4900106F07B77
:100FA600FF7A1679CD120111900210E0FEA3E0FF40
:100FB60090020EE0B5062AA3E0B50725900082E070
:100FC600B4011EA3E024FC600F24FE600E24F6602C
:100FD6000D240D700C020955020AA00207ED120637
:010FE60058B2
:010FE70022E7
:100955009002557403F0900086A3E025E0900254C0
:10096500F0900084E0FEA3E0FDEDFF900257EEF06D
:10097500A3EFF09000027401F0A37403F090025409
:10098500E0900004F07BFF7A1679D51201119002F0
:1009950057E0FFA3E0900212CFF0A3EFF0900254CE
:1009A500E0C313FF900258E02FFF900257E0340098
:1009B500FE900212E0FCA3E0FDC39FEC9E40030203
:1009C5000A96E4900253F0900252F0EC6003020A9A
:1009D50055ED146016146029146037146040240422
:1009E500706EE4900252F0A3F080657F0412133319
:1009F500900253EFF07F05121333900252EFF0800F
:100A05004FE4900252F07F06121333900253EFF039
:100A1500803E9002527441F0A37419F08032900226
:100A250053E020C1054401F0800354FEF0900253C9
:100A3500E020C2054402F0800354FDF0900253E02B
:100A450020C3054404F0800354FBF0E4900252F007
:100A5500900252E0FF900255E0FE04F074022EF57C
:100A650082E43400F583EFF0900253E0FF900255E5
:100A7500E0FE04F074022EF582E43400F583EFF015
:100A8500900213E004F07006900212E004F00209EF
:0B0A9500A2900254E02403FF02005670
:100AA0009002557403F0900086A3E025E090025474
:100AB000F0900084E0FEA3E0FDEDFF900257EEF021
:100AC000A3EFF09000027401F0A37404F0900254BC
:100AD000E0900004F0900212EEF0A3EFF0900254C8
:100AE000E0C313FF900258E02FFF900257E034005C
:100AF000FE900212E0FCA3E0FDC39FEC9E400302C7
:100B00000BADE4900253F0900252F0EC705EED14E5
:100B1000601B14602E1460371460422404704D7FF3
:100B200004121333900253EFF07F05800C7F0612FE
:100B30001333900253EFF07F07121333900252EFFA
:100B4000F0802990025274AAF0A374BBF0801D7F3C
:100B50000B120D77900252EFF07F0A8007E49002AB
:100B600052F07F0C120D77900253EFF0900252E09A
:100B7000FF900255E0FE04F074022EF582E434008A
:100B8000F583EFF0900253E0FF900255E0FE04F091
:100B900074022EF582E43400F583EFF0900213E046
:100BA00004F07006900212E004F0020ADD90025494
:070BB000E02403FF020056E0
:1007ED00900085E024EF605D1470030208D614704C
:1007FD000302091C2403600302095478027C007D66
:10080D00017B017A0079827E007F081204DB900063
:10081D0007E075F0B8A4FFAEF090FEFBEEF0A3EF8D
:10082D00F090FEF9EEF0A3EFF09001027408F0D213
:10083D00C77F057E001215E6439A02900007E090EF
:10084D00025902095078027C007D017B017A007902
:10085D00827E007F081204DB900007E030E0047F09
:10086D00018002E4FF121707900007E0FFC3135445
:10087D0001FEC374019E24FF92C1EF13135401FFB7
:10088D00C374019F24FF92C2E01313135401FFC3DD
:10089D0074019F24FF92C3A2C1B3E43390024FF0C1
:1008AD00A2C2B3E433A3F0A2C3B3E433A3F0900127
:1008BD00027408F0D2C77F057E001215E6439A0236
:1008CD00900007E090025A807A78027C007D017BCF
:1008DD00017A0079827E007F081204DB900007E028
:1008ED0090010DF0900006E090010EF09001027461
:1008FD0008F0D2C77F057E001215E6439A029001DB
:10090D000DE090025CF090010EE090025D80347875
:10091D00027C007D017B017A0079827E007F0812C6
:10092D0004DB900007E090010FF09001027408F0D5
:10093D00D2C77F057E001215E6439A0290010FE0A3
:08094D0090025EF012139422E7
:100658009002567407F0900088E0900254F09000E1
:1006680084E0FEA3E0FDEDFF900257EEF0A3EFF06B
:1006780078027C007D017B017A0079827E007F060A
:100688001204DB900257E0FFA3E0900212CFF0A320
:10069800EFF0900254E0C313FF900258E02FFF9050
:1006A8000257E03400FE900212E0FCA3E0FDC39F75
:1006B800EC9E40030207C5900256E02482F582E4CE
:1006C8003400F583E0900252F0900256E02483F55E
:1006D80082E43400F583E0900253F0EC60030207F3
:1006E800ADED24EF60371470030207831470030222
:1006F80007A1240360030207AD900253E0FD75F0E3
:10070800B8A4FFAEF090FEFBEEF0A3EFF090FEF978
:10071800EEF0A3EFF0900259EDF00207AD9002530E
:10072800E030E0047F018002E4FF121707900253D3
:10073800E0FFC3135401FEC374019E24FF92C1EF6E
:1007480013135401FFC374019F24FF92C2E0FF13E7
:1007580013135401FEC374019E24FF92C3A2C1B3B4
:10076800E43390024FF0A2C2B3E433A3F0A2C3B3C0
:10077800E433A3F090025AEFF0802A900253E090FD
:10078800010DF0900252E0FF90010EF090010DE093
:1007980090025CF0A3EFF0800C900253E090010F00
:1007A800F090025EF0900256E02402F0900213E00E
:1007B80004F07006900212E004F002069A7D061218
:1007C8001201AD07AC06EC900009F0900008EFF0BC
:1007D8009001027408F0D2C77F057E001215E64327
:0507E8009A02021394C7
:061201007B017A00790276
:05120700900214EDF05F
:10120C0074FFA3F0A3F0120501FF900215E0F0A308
:10121C00E06FF0E4FD900215E0FEA3E0FF30E01972
:10122C00EEC313FEEF13FFEE64A0FEEF6401FF901C
:10123C000215EEF0A3EFF0800B900215E0C313F053
:10124C00A3E013F00DEDB408CC740129F9E43AFADB
:0E125C00900214E014F070AEA3E0FEA3E0FFD9
:01126A002261
:02005600AC07F5
:10005800AD0412120174022CF582E43400F583EF2A
:10006800F0EEFF74032CF582E43400F583EFF0EC36
:100078002402900102F0D2C77F057E001215E643E4
:020088009A02DA
:01008A002253
:0A0CBB0042026400004202660000DD
:0300A3000212CF77
:0612CF00C0E0C083C082F4
:1012D500900110E07026900265E004F0700690021F
:1012E50064E004F0900264E07004A3E06464700CB0
:1012F50090011004F0900264E4F0A3F0900108E07E
:101305007025900267E004F07006900266E004F034
:10131500900266E07004A3E06464700B900266F0CE
:07132500A3F090010804F0A1
:07132C00D082D083D0E03233
:100FF400021460E493A3F8E493A34003F68001F29F
:1010040008DFF48029E493A3F85407240CC8C333FD
:10101400C4540F4420C8834004F456800146F6DFCC
:10102400E4800B0102040810204080900BB7E47E9A
:10103400019360BCA3FF543F30E509541FFEE493C1
:10104400A360010ECF54C025E060A840B8E493A388
:10105400FAE493A3F8E493A3C8C582C8CAC583CAB3
:10106400F0A3C8C582C8CAC583CADFE9DEE780BE6B
:010CC500002E
:10040B00E709F608DFFA8046E709F208DFFA803ED3
:10041B0088828C83E709F0A3DFFA8032E309F608C0
:10042B00DFFA8078E309F208DFFA807088828C8328
:10043B00E309F0A3DFFA806489828A83E0A3F608DC
:10044B00DFFA805889828A83E0A3F208DFFA804CB6
:10045B0080D280FA80C680D4806980F2803380108D
:10046B0080A680EA809A80A880DA80E280CA8033F6
:10047B0089828A83ECFAE493A3C8C582C8CCC5836E
:10048B00CCF0A3C8C582C8CCC583CCDFE9DEE7803E
:10049B000D89828A83E493A3F608DFF9ECFAA9F0BD
:1004AB00EDFB2289828A83ECFAE0A3C8C582C8CC13
:1004BB00C583CCF0A3C8C582C8CCC583CCDFEADE2C
:1004CB00E880DB89828A83E493A3F208DFF980CC8E
:1004DB0088F0EF60010E4E60C388F0ED2402B40487
:1004EB000050B9F582EB2402B4040050AF2323452E
:0604FB00822390045B73F4
:10050100BB010689828A83E0225002E722BBFE02F8
:09051100E32289828A83E493222B
:10051A00BC000BBE0029EF8DF084FFADF022E4CCC5
:10052A00F875F008EF2FFFEE33FEEC33FCEE9DEC8E
:10053A00984005FCEE9DFE0FD5F0E9E4CEFD22EDD4
:10054A00F8F5F0EE8420D21CFEADF075F008EF2F1E
:10055A00FFED33FD4007985006D5F0F222C398FD0F
:05056A000FD5F0EA22AC
:10056F00BB0110E58229F582E5833AF583E0F5F0CA
:10057F00A3E0225009E92582F886F008E622BBFEA7
:10058F000AE92582F8E2F5F008E222E5832AF583ED
:08059F00E993F5F0A3E99322B2
:1000A600E5082417F582E43402F583E0050822907A
:1000B6000214300703900217E475F00112061202CB
:1000C60005012000E97F2ED2008018EF540F2490FE
:1000D600D43440D4FF30040BEF24BFB41A005003CD
:1000E6002461FFE50960021509050CE50C7002059F
:1000F6000B30070E900214E475F001120612EF029F
:1001060006000200467403D2078003E4C207F5081E
:10011600900214120629E4F509F50BF50CE50960C1
:10012600077F201200E980F5750AFFC201C200C2EE
:1001360002C203C205C206C2081200B5FF700D3026
:1001460007057F001200FAAF0CAE0B22B4255FC282
:10015600D5C2041200B5FF24D0B40A00501A75F0B7
:100166000A780930D50508B6FF0106C6A426F6208A
:10017600D5047002D20380D924CFB41A00EF5004FC
:10018600C2E5D2040202FBD20180C6D20080C0D2F0
:100196000280BCD2D580BAD20580B47F201200E995
:1001A6002002077401B5090040F11200A6FF1200F3
:1001B600E9020123D208D20680951200A6FB12009E
:1001C600A6FA1200A6F94A4B700679CC7A037BFF91
:1001D60020022EE509602A7E008E827583001205B4
:1001E600D360060EEE650A70F0C2D5EBC0E0EAC039
:1001F600E0E9C0E0EE120342D0E0F9D0E0FAD0E048
:10020600FB120501FF60AAEBC0E0EAC0E0E9C0E02E
:100216001200E9D0E02401F9D0E03400FAD0E0FB86
:10022600E50A0460DCD50AD980877BFF7A03793E2C
:10023600D202809C791080027908C206C208800822
:10024600D2D5790A8004790AC2D5E50A047002F586
:100256000AE4FAFDFEFF1200A6FC7B082001131239
:1002660000A6FD7B1030000A1200A6FE1200A6FFB3
:100276007B20EC3382D592D55013C3E43000069F21
:10028600FFE49EFEE42001039DFDE49CFCE4CBF824
:10029600C201EC700CCFCECDCCE824F8F870F38018
:1002A60017C3EF33FFEE33FEED33FDEC33FCEB33D8
:1002B600FB994002FB0FD8E9EB300105F8D0E0C40A
:1002C60048B201C0E00AEC4D4E4F78207B0070C268
:1002D600EAB50A0040BCC0E0120344D0F0D0E020EA
:1002E6000104C4C0E0C4B201C0F01200D2D0F0D5FF
:1002F600F0EB02012312063201C053023A58019173
:100306004C018D42023E4F02464402464901A64335
:08031600024C55023046023092
:10031E004502304703EC5001952D01992E01BC2B5F
:10032E00019D2301BA2003D52A015548000001B4CE
:10033E003F3F3F00790AA2D5200314300509B910BA
:10034E00020404B9080104A2D520060250010420BB
:10035E0002689202B509005034C0E07F20300319C4
:10036E007F30A20272067205500F12039BC202C2A8
:10037E0006C205C2087F30800F300503E9C0E012C7
:10038E0000E9300503D0E0F9D0E0B509CC3005170F
:10039E007F30B9100C1200E97F583004077F788047
:1003AE0003B908031200E93002057F2D0200E97F30
:1003BE00202008F87F2B2006F322920280CF286E91
:1003CE00756C6C2900D2011200A63001F8C20178BA
:1003DE000930D50108F60201552D50434958120037
:1003EE00A62403B405004001E49003E7931200DA5B
:0D03FE00743A1200DAD20375090402023AC3
:1005A700EF4E6012EF60010EEDBB010B89828A836B
:1005B700F0A3DFFCDEFA2289F05007F709DFFCA978
:0C05C700F022BBFEFCF309DFFCA9F022CF
:1005D300BB010CE58229F582E5833AF583E02250DD
:1005E30006E92582F8E622BBFE06E92582F8E22227
:0D05F300E58229F582E5833AF583E4932241
:10060000BB010689828A83F0225002F722BBFE01D9
:02061000F322D3
:10061200F8E0FBA3A3E0F925F0F0E5821582700271
:070622001583E0FA38F02215
:09062900EBF0A3EAF0A3E9F022D2
:10063200D083D082F8E4937012740193700DA3A357
:1006420093F8740193F5828883E47374029368606B
:06065200EFA3A3A380DF6B
:00000001FF
