:03000000020E0BE2
:0C0E0B00787FE4F6D8FD758121020E52BC
:10147500D3EF9400EE9400401600000075080B753C
:0F14850009BED509FDD508FAEF1F70E41E80E1FE
:011494002235
:10008E00D3EF9400EE9400400A000000EF1F70F0D2
:04009E001E80ED22B1
:1014F20043BC807F0A7E0012147553DEFC43DE0C6F
:0A15020053BCDF53A8DF43DE2022B4
:10143300E4FDFC53BCF0EF444042BCE5BC30E5FBAB
:1014430053BCDF53BCBFAFBDEFADBEFCEDAE04FF7D
:011453002276
:1014540075940275931C7592027591F075960EE45D
:10146400F595F5B2F5B175B49EF5B375CA04F5C931
:011474002255
:1013A8003D3D3D3D3D3D3D3D3D3D20636F646520F8
:1013B8007374617274203D3D3D3D3D3D3D3D3D3D75
:0413C800200D0A00EA
:1012EA0043BA8012145412150C1214F21215491230
:1012FA0014B512153612156C12155C121268D2AF9B
:10130A0012001ED2857BFF7A1379A8120111E4908C
:0B131A000110F012108E120CD380F8AE
:1012680043BA8090FEB6E0F090FEEDE4F090FEEA1E
:101278007470F0A3F090FEED7411F090FEF2740417
:10128800F0A37451F090FEF0E4F0A37431F090FEF6
:10129800B5E04450F090FEFD7480F090FEE0E0442C
:0312A80001F02230
:04000300438F1022F5
:10153600438E805389F0758ACD758CD4C28DD28C3A
:03154600D2A92205
:0A157A00538EBF53890F43891022DE
:10155C0053D1DFE4F5D375D2DC43D18043AF4022C5
:10154900759A50438E0475D7E875D6FF438E1043BC
:03155900AF0122BD
:10150C0075AC1043AC4043D10275D5E875D4FF439C
:06151C00D10843AF0822D4
:0D000E00E4F5C7F5C5F5C675C380F5C4223D
:1014D40075C78075F50C75C5038FC4EEF5C375C665
:0E14E4005A75C6A57F0A7E0012147502000E0E
:1013EF0075C78075F50C75C5028FC4EEF5C3AF05D3
:1013FF008FC275C65A75C6A57F0A7E001214750274
:02140F00000ECD
:1014950075C78075F50C75C5018FC4EEF5C375C6A6
:1014A5005A75C6A57F0A7E00121475AFC202000EDA
:100A660060FC011203D503FA04200446046D0495C4
:100A760004BE04E70510053A0565059005BB05E7C4
:100A86000613063F066C069906C606F30720074DB1
:100A9600077A07A707D40800082D0859088508B162
:100AA60008DC09070931095B098409AD09D609FD86
:100AB6000A240A4B0A710A960ABB0ADE0B020B24A9
:100AC6000B460B670B870BA70BC60BE40C020C1E21
:100AD6000C3A0C560C700C8A0CA40CBC0CD40CEC06
:100AE6000D020D190D2E0D430D570D6B0D7E0D903C
:100AF6000DA20DB40DC50DD50DE50DF50E040E12A6
:100B06000E200E2E0E3B0E480E550E610E6D0E7803
:100B16000E830E8D0E970EA10EAB0EB40EBD0EC635
:100B26000ECF0ED70EDF0EE70EEF0EF60EFD0F04FC
:100B36000F0B0F110F170F1D0F230F290F2F0F3537
:100B46000F3A0F3F0F440F490F4E0F530F580F5CCC
:100B56000F600F650F690F6D0F710F740F780F7CA3
:0E0E9700900212EBF0A3EAF0A3E9F0A3EDF055
:100EA500E4900219F0A3F0900218F0900215E014F6
:100EB500FF900218E0FEC39F505A900212E0FBA378
:100EC500E0FAA3E0F975F002EEA4F58285F083124D
:100ED500056FFF900216E0FCA3E0FDC39FEC95F0C3
:100EE500402AA3E02401FFE433FEEF25E0FFEE33C3
:100EF500FE8F828E8312056FFFC3ED9FEC95F05038
:100F05000B900218E0FFA3E4F0A3EFF0900218E0C5
:0C0F150004F08097900219E0FEA3E0FFBA
:010F210022AD
:0511BD0090020EEFF0AE
:1011C200E4900210F0A3F090020FF090020EE0FF04
:1011D200121433900211E02FF0900210E03EF090D2
:1011E200020FE004F0E0C3940A40E0900210E0FE37
:1011F200A3E0FF7C007D0A12051A900210EEF0A314
:10120200EFF07B017A017912900210E0FFA3E090E7
:0C1212000216CFF0A3EFF07D7E020E97D5
:100CD300900110E064016003020D767F041211BDE0
:100CE30090010AEFF07F051211BD90010BEFF07F29
:100CF300061211BD90010CEFF0900249E0B4011E01
:100D030090010DE0FF90010CE0FEC39F4004D2C1AF
:100D1300800EEF14FFEEC39F5006C2C18002D2C102
:100D230090024AE0B4011E90010EE0FF90010BE037
:100D3300FEC39F4004D2C2800EEF14FFEEC39F5048
:100D430006C2C28002D2C290024BE0B4011E9001DF
:100D53000FE0FF90010AE0FEC39F4004D2C3800E60
:100D6300EF14FFEEC39F5006C2C38002D2C3E490C8
:040D73000110F02259
:0E156C00E4900246F0D2C3D2C2D2C1D2C42251
:0300530002132570
:10132500C0E0C083C082C0D075D000C0069002471F
:10133500E0FEA3E0F58BEEF58D9002467401F0D248
:0E1345008ED2ABD006D0D0D082D083D0E03292
:03001B0002137E4F
:10137E00C0E0C083C082C0D0900246E0B4010CE44D
:10138E00F0C2C4758BF7758DFF8006D2C4C28EC2B3
:0A139E00ABD0D0D082D083D0E03273
:10152200EF75F04BA42490FEE5F034E2900247F010
:04153200A3CEF02232
:0A158400EFB40103C2A122D2A1229C
:050C260090025EEFF0FA
:100C2B00E4A3F0A3F0A3F090025EE0FF1214339064
:100C3B000260E02FF090025FE03EF0900261E00472
:100C4B00F0E0C3940A40E090025FE0FEA3E0FF7C7B
:100C5B00007D0A12051A90025FEEF0A3EFF0C39429
:100C6B0050EE9405500A90025F7405F0A37450F097
:100C7B00900260E024B0FF90025FE034FAFE7C004B
:100C8B007D2412051AAB05AA04C3EB9412EA940057
:100C9B0040067A007B018003E4FAFB900260E024BB
:100CAB00B0FF90025FE034FAFE7C007D2412051A3F
:100CBB00EF2BFBEE3AFAD3EB941EEA940040047A46
:070CCB00007B1EAE02AF0327
:010CD20022FF
:040B66004101090040
:1014B500E4900000F0A3F0900082F0900102F0F0BB
:0F14C500A3F0A3F0A3F0A3F0C2C7900108F02298
:03004300020F2287
:100F2200C0E0C083C082C0D075D000C007E59A304F
:100F3200E12F539AFD900000E4F0900102E0601A64
:100F4200A3E0FF04F074022FF582E43400F583E09D
:100F5200F59B900102E014F08007900103E4F0C2D7
:100F6200C7E59A30E033539AFE900001E070219079
:100F72000106E0D394804002E4F0900106E024826E
:100F8200F582E43400F583E59BF0900106E004F07D
:100F9200900104E4F0A37402F0D007D0D0D082D044
:040FA20083D0E032E6
:03000B000212AB33
:1012AB00C0E0C083C082C0D0900104E07002A3E014
:1012BB006024900105E024FFF0900104E034FFF07E
:1012CB00E07002A3E0700F900106E0D3940040069B
:0F12DB009000017401F0D0D0D082D083D0E032E7
:03008B000214114B
:10141100C0E0C083C082E5AC30E10853ACFD90016F
:1014210009E4F0E5AC30E00353ACFED082D083D0C8
:02143100E032A7
:0B0046008FAD900109E070FA04F02279
:10001E007F107E00121495EFB4FF179002537403F5
:10002E00F0A3740FF0900256742DF0A3F0A3F0120B
:05003E00121E020D7707
:10121E00E4FFFE1214D4900253E0FDE4FFFE12131D
:10122E00EF900254E0FD7F017E001213EF90025604
:10123E00E0FD7F037E001213EF900257E0FD7F0466
:10124E007E001213EF900258E0FD7F057E00121310
:0A125E00EF7D587F107E000213EFB1
:100D7700E4FFFE121495900253EFF0E075F0B8A46B
:100D8700FFAEF090FEFBEEF0A3EFF090FEF9EEF071
:100D9700A3EFF07F017E00121495900254EFF0301C
:100DA700E0047F018002E4FF121584900254E0FD05
:100DB700C3135401900249F0ED13135401A3F090AB
:100DC7000254E0131313540190024BF07F037E008B
:100DD700121495900256EFF07F047E00121495903E
:100DE7000257EFF07F057E00121495900258EFF03E
:100DF700900256E090010DF0900257E090010EF03E
:040E0700A3EFF02243
:1013530054656D70657261747572653A20307825D5
:10136300303478202C48756D696469747920697309
:0B13730020307825303478200D0A006F
:0513CC00900266EFF045
:1013D100E4A3F0900266E0FFA3E0C39F500F7F0AF1
:0D13E1007E0012008E900267E004F080E6AE
:0113EE0022DC
:1010F500E4900269F0900268F03085FD7F041213D8
:10110500CC30851F2085FD900269E0FF900268E0E4
:10111500FEC374079EFEF87401088002C333D8FC31
:101125004F801B900269E0FF900268E0FEC37407E0
:101135009EFEF87401088002C333D8FCF45F900268
:1011450069F0900268E004F0E0C3940840AB9002B7
:0311550069E0FF4F
:011158002274
:100B7500C2857F147E00121475D2857F031213CCB3
:100B8500308503020C1A3085FD2085FD1210F59085
:100B9500023EEFF01210F590023FEFF01210F590C3
:100BA500023CEFF01210F590023DEFF01210F590B7
:100BB5000240EFF0D28590023DE0F990023CE0FE64
:100BC50029FD90023EE0FC2DFDA3E0FB2DB50718A5
:100BD50090025BECF0A3EBF0900259EEF0A3E9F084
:100BE500900240E090025DF0900259E0FF75F00A36
:100BF50084900241F0EF75F00A84A3E5F0F09002CD
:100C05005BE0FF75F00A84900243F0EF75F00A840B
:100C1500A3E5F0F022E4900241F0A3F0A3F0A3F0E5
:010C250022AC
:100FA6007E007F037D007B017A0279361205A77EDB
:100FB600007F037D007B017A0279391205A7120BA7
:100FC60075900241E02430900236F0900242E0240F
:100FD60030900237F0FD900236E0FFED90026ACFC6
:100FE600F0A3EFF0900243E02430900239F0900233
:100FF60044E0243090023AF0FD900239E0FEEDFF25
:101006007BFF7A13795390026AE0FDA3E090021108
:0E101600CDF0A3EDF0A3EEF0A3EFF002011178
:10108E00900001E06401705EF07B017A007982903D
:10109E000106E024FEFD12102AAD07AC06900106F3
:1010AE00E0FB2481F582E43400F583E0FE74802BAE
:1010BE00F582E43400F583E0FBEBFFE4900106F0EB
:1010CE00EDB50722ECB5061E900082E0B40117A321
:1010DE00E024FA600B24F6600A240D70090207CA98
:0610EE000209231206585E
:0110F40022D9
:1007CA0090024F7403F0900086A3E025E090024E59
:1007DA00F0900084E0FEA3E0FDEDFF900251EEF000
:1007EA00A3EFF09000027401F0A37403F090024E9C
:1007FA00E0900004F0AB07AA0690024EE0C313FF94
:10080A00900252E02FFF900251E03400FEC3EB9FAA
:10081A00EA9E4003020919E490024DF090024CF05E
:10082A00EA60030208E1EB14601D146028146034C6
:10083A0014603D146079240560030208E1E4900223
:10084A004CF0A3F00208E190010DE090024DF09007
:10085A00010EE0807EE490024CF090010FE09002DD
:10086A004DF0807390024C7441F0A37419F08067C4
:10087A00900249E090024DB40106E04401F0800480
:10088A00E054FEF090024AE090024DB40106E044C2
:10089A0002F08004E054FDF090024BE090024DB467
:1008AA000106E04404F08004E054FBF0E48024A252
:1008BA00A1B3E43390024DF090FEF9E0FEA3E0FF0D
:1008CA007C007DB812051A90024DE033333354F898
:1008DA004FF0E490024CF090024CE0FF90024FE09F
:1008EA00FE04F074022EF582E43400F583EFF090F2
:1008FA00024DE0FF90024FE0FE04F074022EF582F2
:10090A00E43400F583EFF00BBB00010A0208039000
:09091A00024EE02403FF02005626
:10092300900085E024EF605D1470030209E7147002
:1009330003020A2D24036003020A6578027C007D0A
:10094300017B017A0079827E007F081204DB90002C
:1009530007E075F0B8A4FFAEF090FEFBEEF0A3EF56
:10096300F090FEF9EEF0A3EFF09001027408F0D2DC
:10097300C77F057E00121475439A02900007E0902A
:100983000253020A6178027C007D017B017A0079BF
:10099300827E007F081204DB900007E030E0047FD2
:1009A300018002E4FF12158490024DE0FDC313544D
:1009B30001900249F0ED13135401A3F090024DE0AE
:1009C300131313540190024BF09001027408F0D2F8
:1009D300C77F057E00121475439A02900007E090CA
:1009E3000254807A78027C007D017B017A0079824F
:1009F3007E007F081204DB900007E090010DF09069
:100A03000006E090010EF09001027408F0D2C77F57
:100A1300057E00121475439A0290010DE090025670
:100A2300F090010EE0900257803478027C007D0143
:100A33007B017A0079827E007F081204DB90000735
:100A4300E090010FF09001027408F0D2C77F057E99
:100A530000121475439A0290010FE0900258F012AD
:030A6300121E223E
:100658009002507407F0900088E090024EF09000ED
:1006680084E0FEA3E0FDEDFF900251EEF0A3EFF071
:1006780078027C007D017B017A0079827E007F060A
:100688001204DB7D06121024AD07AC06EC900009BD
:10069800F0900008EFF09001027408F0D2C77F02D2
:1006A8007E00121475439A027F017E001214759021
:1006B8000251E0FFA3E090020ECFF0A3EFF090020A
:1006C8004EE0C313FF900252E02FFF900251E03436
:1006D80000FE90020EE0FCA3E0FDC39FEC9E4003E9
:1006E8000207C7900250E02482F582E43400F583C3
:1006F800E090024CF0900250E02483F582E434004C
:10070800F583E090024DF0EC60030207AFED24EFB3
:1007180060331460681470030207A32403600302A3
:1007280007AF90024DE0FD75F0B8A4FFAEF090FE63
:10073800FBEEF0A3EFF090FEF9EEF0A3EFF09002DD
:1007480053EDF0806290024DE030E0047F018002BA
:10075800E4FF12158490024DE0FDC313540190028A
:1007680049F0ED13135401A3F090024DE013131355
:10077800540190024BF0900254EDF0802A90024D03
:10078800E090010DF090024CE0FF90010EF0900116
:100798000DE0900256F0A3EFF0800C90024DE0902F
:1007A800010FF0900258F0900250E02402F09002FD
:1007B8000FE004F0700690020EE004F00206C60294
:0207C800121EFF
:061024007B017A00790255
:05102A00900210EDF042
:10102F0074FFA3F0A3F0120501FF900211E0F0A3EB
:10103F00E06FF0E4FD900211E0FEA3E0FF30E01955
:10104F00EEC313FEEF13FFEE64A0FEEF6401FF90FB
:10105F000211EEF0A3EFF0800B900211E0C313F03A
:10106F00A3E013F00DEDB408CC740129F9E43AFABA
:0E107F00900210E014F070AEA3E0FEA3E0FFBC
:01108D002240
:02005600AC07F5
:10005800AD0412102474022CF582E43400F583EF09
:10006800F0EEFF74032CF582E43400F583EFF0EC36
:100078002402900102F0D2C77F027E001214754359
:020088009A02DA
:01008A002253
:0A0B6A004202620000420264000033
:0300A300021159EE
:06115900C0E0C083C0826B
:10115F00900110E07026900263E004F07006900298
:10116F0062E004F0900262E07004A3E06464700C2B
:10117F0090011004F0900262E4F0A3F0900108E0F7
:10118F007025900265E004F07006900264E004F0B0
:10119F00900264E07004A3E06464700B900264F04A
:0711AF00A3F090010804F019
:0711B600D082D083D0E032AB
:100E17000212EAE493A3F8E493A34003F68001F2F5
:100E270008DFF48029E493A3F85407240CC8C333DC
:100E3700C4540F4420C8834004F456800146F6DFAB
:100E4700E4800B0102040810204080900A66E47ECB
:100E5700019360BCA3FF543F30E509541FFEE493A0
:100E6700A360010ECF54C025E060A840B8E493A367
:100E7700FAE493A3F8E493A3C8C582C8CAC583CA92
:100E8700F0A3C8C582C8CAC583CADFE9DEE780BE4A
:010B74000080
:10040B00E709F608DFFA8046E709F208DFFA803ED3
:10041B0088828C83E709F0A3DFFA8032E309F608C0
:10042B00DFFA8078E309F208DFFA807088828C8328
:10043B00E309F0A3DFFA806489828A83E0A3F608DC
:10044B00DFFA805889828A83E0A3F208DFFA804CB6
:10045B0080D280FA80C680D4806980F2803380108D
:10046B0080A680EA809A80A880DA80E280CA8033F6
:10047B0089828A83ECFAE493A3C8C582C8CCC5836E
:10048B00CCF0A3C8C582C8CCC583CCDFE9DEE7803E
:10049B000D89828A83E493A3F608DFF9ECFAA9F0BD
:1004AB00EDFB2289828A83ECFAE0A3C8C582C8CC13
:1004BB00C583CCF0A3C8C582C8CCC583CCDFEADE2C
:1004CB00E880DB89828A83E493A3F208DFF980CC8E
:1004DB0088F0EF60010E4E60C388F0ED2402B40487
:1004EB000050B9F582EB2402B4040050AF2323452E
:0604FB00822390045B73F4
:10050100BB010689828A83E0225002E722BBFE02F8
:09051100E32289828A83E493222B
:10051A00BC000BBE0029EF8DF084FFADF022E4CCC5
:10052A00F875F008EF2FFFEE33FEEC33FCEE9DEC8E
:10053A00984005FCEE9DFE0FD5F0E9E4CEFD22EDD4
:10054A00F8F5F0EE8420D21CFEADF075F008EF2F1E
:10055A00FFED33FD4007985006D5F0F222C398FD0F
:05056A000FD5F0EA22AC
:10056F00BB0110E58229F582E5833AF583E0F5F0CA
:10057F00A3E0225009E92582F886F008E622BBFEA7
:10058F000AE92582F8E2F5F008E222E5832AF583ED
:08059F00E993F5F0A3E99322B2
:1000A600E5082411F582E43402F583E00508229080
:1000B600020E300703900211E475F00112061202D7
:1000C60005012000E97F2ED2008018EF540F2490FE
:1000D600D43440D4FF30040BEF24BFB41A005003CD
:1000E6002461FFE50960021509050CE50C7002059F
:1000F6000B30070E90020EE475F001120612EF02A5
:1001060006000200467403D2078003E4C207F5081E
:1001160090020E120629E4F509F50BF50CE50960C7
:10012600077F201200E980F5750AFFC201C200C2EE
:1001360002C203C205C206C2081200B5FF700D3026
:1001460007057F001200FAAF0CAE0B22B4255FC282
:10015600D5C2041200B5FF24D0B40A00501A75F0B7
:100166000A780930D50508B6FF0106C6A426F6208A
:10017600D5047002D20380D924CFB41A00EF5004FC
:10018600C2E5D2040202FBD20180C6D20080C0D2F0
:100196000280BCD2D580BAD20580B47F201200E995
:1001A6002002077401B5090040F11200A6FF1200F3
:1001B600E9020123D208D20680951200A6FB12009E
:1001C600A6FA1200A6F94A4B700679CC7A037BFF91
:1001D60020022EE509602A7E008E827583001205B4
:1001E600D360060EEE650A70F0C2D5EBC0E0EAC039
:1001F600E0E9C0E0EE120342D0E0F9D0E0FAD0E048
:10020600FB120501FF60AAEBC0E0EAC0E0E9C0E02E
:100216001200E9D0E02401F9D0E03400FAD0E0FB86
:10022600E50A0460DCD50AD980877BFF7A03793E2C
:10023600D202809C791080027908C206C208800822
:10024600D2D5790A8004790AC2D5E50A047002F586
:100256000AE4FAFDFEFF1200A6FC7B082001131239
:1002660000A6FD7B1030000A1200A6FE1200A6FFB3
:100276007B20EC3382D592D55013C3E43000069F21
:10028600FFE49EFEE42001039DFDE49CFCE4CBF824
:10029600C201EC700CCFCECDCCE824F8F870F38018
:1002A60017C3EF33FFEE33FEED33FDEC33FCEB33D8
:1002B600FB994002FB0FD8E9EB300105F8D0E0C40A
:1002C60048B201C0E00AEC4D4E4F78207B0070C268
:1002D600EAB50A0040BCC0E0120344D0F0D0E020EA
:1002E6000104C4C0E0C4B201C0F01200D2D0F0D5FF
:1002F600F0EB02012312063201C053023A58019173
:100306004C018D42023E4F02464402464901A64335
:08031600024C55023046023092
:10031E004502304703EC5001952D01992E01BC2B5F
:10032E00019D2301BA2003D52A015548000001B4CE
:10033E003F3F3F00790AA2D5200314300509B910BA
:10034E00020404B9080104A2D520060250010420BB
:10035E0002689202B509005034C0E07F20300319C4
:10036E007F30A20272067205500F12039BC202C2A8
:10037E0006C205C2087F30800F300503E9C0E012C7
:10038E0000E9300503D0E0F9D0E0B509CC3005170F
:10039E007F30B9100C1200E97F583004077F788047
:1003AE0003B908031200E93002057F2D0200E97F30
:1003BE00202008F87F2B2006F322920280CF286E91
:1003CE00756C6C2900D2011200A63001F8C20178BA
:1003DE000930D50108F60201552D50434958120037
:1003EE00A62403B405004001E49003E7931200DA5B
:0D03FE00743A1200DAD20375090402023AC3
:1005A700EF4E6012EF60010EEDBB010B89828A836B
:1005B700F0A3DFFCDEFA2289F05007F709DFFCA978
:0C05C700F022BBFEFCF309DFFCA9F022CF
:1005D300BB010CE58229F582E5833AF583E02250DD
:1005E30006E92582F8E622BBFE06E92582F8E22227
:0D05F300E58229F582E5833AF583E4932241
:10060000BB010689828A83F0225002F722BBFE01D9
:02061000F322D3
:10061200F8E0FBA3A3E0F925F0F0E5821582700271
:070622001583E0FA38F02215
:09062900EBF0A3EAF0A3E9F022D2
:10063200D083D082F8E4937012740193700DA3A357
:1006420093F8740193F5828883E47374029368606B
:06065200EFA3A3A380DF6B
:00000001FF
