:03000000020F40AC
:0C0F4000787FE4F6D8FD758121020F8750
:1015AC00D3EF9400EE9400401600000075080B7504
:0F15BC0009BED509FDD508FAEF1F70E41E80E1C6
:0115CB0022FD
:10008E00D3EF9400EE9400400A000000EF1F70F0D2
:04009E001E80ED22B1
:1016290043BC807F0A7E001215AC53DEFC43DE0CFE
:0A16390053BCDF53A8DF43DE20227C
:10156A00E4FDFC53BCF0EF444042BCE5BC30E5FB73
:10157A0053BCDF53BCBFAFBDEFADBEFCEDAE04FF45
:01158A00223E
:10158B0075940275931C7592027591F075960EE425
:10159B00F595F5B2F5B175B49EF5B375CA04F5C9F9
:0115AB00221D
:1014DF003D3D3D3D3D3D3D3D3D3D20636F646520C0
:1014EF007374617274203D3D3D3D3D3D3D3D3D3D3D
:0414FF00200D0A00B2
:1014200043BA8012158B12164312162990011174BB
:1014300001F01216801215EC12166D1216A3121678
:101440009312139ED2AF12001ED2857BFF7A1479BD
:0C145000DF120111121159120E0680F873
:10139E0043BA8090FEB6E0F090FEEDE4F090FEEAE7
:1013AE007470F0A3F090FEED7411F090FEF27404E0
:1013BE00F0A37451F090FEF0E4F0A37431F090FEBF
:1013CE00B5E04450F090FEFD7480F090FEE0E044F5
:0313DE0001F022F9
:04000300438F1022F5
:10166D00438E805389F0758ACD758CD4C28DD28C02
:03167D00D2A922CD
:0A16B100538EBF53890F43891022A6
:1016930053D1DFE4F5D375D2DC43D18043AF40228D
:10168000759A50438E0475D7E875D6FF438E104384
:03169000AF012285
:1016430075AC1043AC4043D10275D5E875D4FF4364
:06165300D10843AF08229C
:0D000E00E4F5C7F5C5F5C675C380F5C4223D
:10160B0075C78075F50C75C5038FC4EEF5C375C62C
:0E161B005A75C6A57F0A7E001215AC02000E9D
:1015260075C78075F50C75C5028FC4EEF5C3AF059A
:101536008FC275C65A75C6A57F0A7E001215AC0203
:02154600000E95
:1015CC0075C78075F50C75C5018FC4EEF5C375C66E
:1015DC005A75C6A57F0A7E001215ACAFC202000E6A
:100B990060FC011203D503FA04200446046D049590
:100BA90004BE04E70510053A0565059005BB05E790
:100BB9000613063F066C069906C606F30720074D7D
:100BC900077A07A707D40800082D0859088508B12E
:100BD90008DC09070931095B098409AD09D609FD52
:100BE9000A240A4B0A710A960ABB0ADE0B020B2475
:100BF9000B460B670B870BA70BC60BE40C020C1EED
:100C09000C3A0C560C700C8A0CA40CBC0CD40CECD1
:100C19000D020D190D2E0D430D570D6B0D7E0D9007
:100C29000DA20DB40DC50DD50DE50DF50E040E1271
:100C39000E200E2E0E3B0E480E550E610E6D0E78CF
:100C49000E830E8D0E970EA10EAB0EB40EBD0EC601
:100C59000ECF0ED70EDF0EE70EEF0EF60EFD0F04C8
:100C69000F0B0F110F170F1D0F230F290F2F0F3503
:100C79000F3A0F3F0F440F490F4E0F530F580F5C98
:100C89000F600F650F690F6D0F710F740F780F7C6F
:0E0FCC00900214EBF0A3EAF0A3E9F0A3EDF01D
:100FDA00E490021BF0A3F090021AF0900217E014BA
:100FEA00FF90021AE0FEC39F505A900214E0FBA33E
:100FFA00E0FAA3E0F975F002EEA4F58285F0831217
:10100A00056FFF900218E0FCA3E0FDC39FEC95F08A
:10101A00402AA3E02401FFE433FEEF25E0FFEE338C
:10102A00FE8F828E8312056FFFC3ED9FEC95F05001
:10103A000B90021AE0FFA3E4F0A3EFF090021AE08B
:0C104A0004F0809790021BE0FEA3E0FF82
:011056002277
:05129500900210EFF0D3
:10129A00E4900212F0A3F0900211F0900210E0FF25
:1012AA0012156A900213E02FF0900212E03EF090BD
:1012BA000211E004F0E0C3940A40E0900212E0FE5A
:1012CA00A3E0FF7C007D0A12051A900212EEF0A339
:1012DA00EFF07B017A017912900212E0FFA3E0900D
:0C12EA000218CFF0A3EFF07D7E020FCCC5
:100E0600900110E064016003020EAB7F041212959C
:100E160090010AEFF07F0512129590010BEFF07F1B
:100E26000612129590010CEFF0900111E06401702A
:100E36006F900249E0B4011C90010DE0FF90010A99
:100E4600E0FEC39F4002D2C1EF14FFEEC39F5006DF
:100E5600C2C18002D2C190024AE0B4011C90010EC8
:100E6600E0FF90010BE0FEC39F4002D2C2EF14FFE9
:100E7600EEC39F5006C2C28002D2C290024BE0B4BB
:100E8600011C90010FE0FF90010CE0FEC39F4002A1
:100E9600D2C3EF14FFEEC39F5006C2C38002D2C373
:060EA600E4900110F022AF
:0E16A300E4900246F0D2C3D2C2D2C1D2C42219
:0300530002145C38
:10145C00C0E0C083C082C0D075D000C006900247E7
:10146C00E0FEA3E0F58BEEF58D9002467401F0D210
:0E147C008ED2ABD006D0D0D082D083D0E0325A
:03001B000214B517
:1014B500C0E0C083C082C0D0900246E0B4010CE415
:1014C500F0C2C4758BF7758DFF8006D2C4C28EC27B
:0A14D500ABD0D0D082D083D0E0323B
:10165900EF75F04BA42490FEE5F034E2900247F0D8
:04166900A3CEF022FA
:0A16BB00EFB40103C2A122D2A12264
:050D5900900210EFF014
:100D5E00E4A3F0A3F0A3F0900210E0FF12156A9046
:100D6E000212E02FF0900211E03EF0900213E00428
:100D7E00F0E0C3940A40E0900211E0FEA3E0FF7C95
:100D8E00007D0A12051A900211EEF0A3EFF0C39443
:100D9E0050EE9405500A9002117405F0A37450F0B1
:100DAE00900212E024B0FF900211E034FAFE7C00B3
:100DBE007D2412051AAB05AA04C3EB9412EA940023
:100DCE0040067A007B018003E4FAFB900212E024D5
:100DDE00B0FF900211E034FAFE7C007D2412051A59
:100DEE00EF2BFBEE3AFAD3EB941EEA940040047A12
:070DFE00007B1EAE02AF03F3
:010E050022CA
:040C9900410109000C
:1015EC00E4900000F0A3F0900082F0900102F0F083
:0F15FC00A3F0A3F0A3F0A3F0C2C7900108F02260
:0300430002105751
:10105700C0E0C083C082C0D075D000C007E59A3019
:10106700E12F539AFD900000E4F0900102E0601A2E
:10107700A3E0FF04F074022FF582E43400F583E067
:10108700F59B900102E014F08007900103E4F0C2A1
:10109700C7E59A30E033539AFE900001E070219043
:1010A7000106E0D394804002E4F0900106E0248238
:1010B700F582E43400F583E59BF0900106E004F047
:1010C700900104E4F0A37432F0D007D0D0D082D0DE
:0410D70083D0E032B0
:03000B000213E1FC
:1013E100C0E0C083C082C0D0900104E07002A3E0DD
:1013F1006024900105E024FFF0900104E034FFF047
:10140100E07002A3E0700F900106E0D39400400663
:0F1411009000017401F0D0D0D082D083D0E032AF
:03008B0002154813
:10154800C0E0C083C082E5AC30E10853ACFD900137
:1015580009E4F0E5AC30E00353ACFED082D083D090
:02156800E0326F
:0B0046008FAD900109E070FA04F02279
:10001E007F107E001215CCEFB4FF179002537406BA
:10002E00F0A3740FF09002567450F0A3F0A3F012E8
:05003E001354020EAC9A
:10135400E4FFFE12160B900253E0FDE4FFFE1215AB
:1013640026900254E0FD7F017E001215269002565D
:10137400E0FD7F037E00121526900257E0FD7F04F6
:101384007E00121526900258E0FD7F057E0012159E
:0A139400267D587F107E000215260A
:100EAC00E4FFFE1215CC900253EFF0E075F0B8A4FD
:100EBC00FFAEF090FEFBEEF0A3EFF090FEF9EEF03B
:100ECC00A3EFF07F017E001215CC900254EFF030AE
:100EDC00E0047F018002E4FF1216BB900254E0FD97
:100EEC00C3135401900249F0ED13135401A3F09075
:100EFC000254E0131313540190024BF07F037E0055
:100F0C001215CC900256EFF07F047E001215CC9097
:100F1C000257EFF07F057E001215CC900258EFF0CF
:100F2C00900256E090010DF0900257E090010EF007
:040F3C00A3EFF0220D
:10148A0054656D70657261747572653A203078259D
:10149A00303478202C48756D6964697479206973D1
:0B14AA0020307825303478200D0A0037
:05150300900262EFF010
:10150800E4A3F0900262E0FFA3E0C39F500F7F0ABC
:0D1518007E0012008E900263E004F080E679
:0115250022A3
:10123100E4900265F0900264F03085FD7F041215A0
:101241000330851F2085FD900265E0FF900264E078
:10125100FEC374079EFEF87401088002C333D8FCF4
:101261004F801B900265E0FF900264E0FEC37407AB
:101271009EFEF87401088002C333D8FCF45F90022B
:1012810065F0900264E004F0E0C3940840AB900282
:0312910065E0FF16
:011294002237
:100CA800C2857F147E001215ACD2857F031215030E
:100CB800308503020D4D3085FD2085FD12123190DF
:100CC800023EEFF012123190023FEFF01212319013
:100CD800023CEFF012123190023DEFF01212319007
:100CE8000240EFF0D28590023DE0F990023CE0FE30
:100CF80029FD90023EE0FC2DFDA3E0FB2DB5071871
:100D080090025BECF0A3EBF0900259EEF0A3E9F04F
:100D1800900240E090025DF0900259E0FF75F00A01
:100D280084900241F0EF75F00A84A3E5F0F0900298
:100D38005BE0FF75F00A84900243F0EF75F00A84D7
:100D4800A3E5F0F022E4900241F0A3F0A3F0A3F0B1
:010D58002278
:1010DB007E007F037D007B017A0279361205A77EA5
:1010EB00007F037D007B017A0279391205A7120C70
:1010FB00A8900241E02430900236F0900242E024A6
:10110B0030900237F0FD900236E0FFED900266CF93
:10111B00F0A3EFF0900243E02430900239F09002FC
:10112B0044E0243090023AF0FD900239E0FEEDFFEE
:10113B007BFF7A14798A900266E0FDA3E09002119E
:0E114B00CDF0A3EDF0A3EEF0A3EFF002011142
:10115900900001E064017065F07B017A007982906A
:101169000106E024FEFD1211CDAD07AC0690010683
:10117900E0FB2481F582E43400F583E0FE74802BE2
:10118900F582E43400F583E0FBEBFFE4900106F01F
:10119900EDB50729ECB50625900082E0B4011EA340
:1011A900E024FC600F24FE600E24F6600D240D700F
:0D11B9000C020955020A820207ED120658C9
:0111C6002206
:1009550090024F7403F0900086A3E025E090024ECC
:10096500F0900084E0FEA3E0FDEDFF900251EEF073
:10097500A3EFF09000027401F0A37403F090024E0F
:10098500E0900004F090020EEEF0A3EFF090024E1E
:10099500E0C313FF900252E02FFF900251E03400B4
:1009A500FE90020EE0FCA3E0FDC39FEC9E40030217
:1009B5000A78E490024DF090024CF0EC7074ED244E
:1009C500FE602014602E146037240370657F0412C6
:1009D500129590024DEFF07F0512129590024CEFA3
:1009E500F0804FE490024CF07F0612129590024D74
:1009F500EFF0803E90024C7441F0A37419F0803200
:100A050090024DE020C1054401F0800354FEF090B2
:100A1500024DE020C2054402F0800354FDF090022F
:100A25004DE020C3054404F0800354FBF0E490023C
:100A35004CF090024CE0FF90024FE0FE04F074028F
:100A45002EF582E43400F583EFF090024DE0FF903F
:100A5500024FE0FE04F074022EF582E43400F583C3
:100A6500EFF090020FE004F0700690020EE004F043
:0D0A750002099290024EE02403FF02005699
:100A820090024F7403F0900086A3E025E090024E9E
:100A9200F0900084E0FEA3E0FDEDFF900251EEF045
:100AA200A3EFF09000027401F0A37404F090024EE0
:100AB200E0900004F090020EEEF0A3EFF090024EF0
:100AC200E0C313FF900252E02FFF900251E0340086
:100AD200FE90020EE0FCA3E0FDC39FEC9E400302E9
:100AE2000B8FE490024DF090024CF0EC705EED142E
:100AF200601B14602E1460371460422404704D7F12
:100B02000412129590024DEFF07F05800C7F0612C1
:100B1200129590024DEFF07F0712129590024CEF62
:100B2200F0802990024C74AAF0A374BBF0801D7F60
:100B32000B120D5990024CEFF07F0A8007E49002ED
:100B42004CF07F0C120D5990024DEFF090024CE0E8
:100B5200FF90024FE0FE04F074022EF582E43400AE
:100B6200F583EFF090024DE0FF90024FE0FE04F0BB
:100B720074022EF582E43400F583EFF090020FE068
:100B820004F0700690020EE004F0020ABF90024EDA
:070B9200E02403FF020056FE
:1007ED00900085E024EF605D1470030208D614704C
:1007FD000302091C2403600302095478027C007D66
:10080D00017B017A0079827E007F081204DB900063
:10081D0007E075F0B8A4FFAEF090FEFBEEF0A3EF8D
:10082D00F090FEF9EEF0A3EFF09001027408F0D213
:10083D00C77F057E001215AC439A02900007E09029
:10084D00025302095078027C007D017B017A007908
:10085D00827E007F081204DB900007E030E0047F09
:10086D00018002E4FF1216BB900007E0FFC3135492
:10087D0001FEC374019E24FF92C1EF13135401FFB7
:10088D00C374019F24FF92C2E01313135401FFC3DD
:10089D0074019F24FF92C3A2C1B3E433900249F0C7
:1008AD00A2C2B3E433A3F0A2C3B3E433A3F0900127
:1008BD00027408F0D2C77F057E001215AC439A0270
:1008CD00900007E0900254807A78027C007D017BD5
:1008DD00017A0079827E007F081204DB900007E028
:1008ED0090010DF0900006E090010EF09001027461
:1008FD0008F0D2C77F057E001215AC439A02900115
:10090D000DE0900256F090010EE090025780347881
:10091D00027C007D017B017A0079827E007F0812C6
:10092D0004DB900007E090010FF09001027408F0D5
:10093D00D2C77F057E001215AC439A0290010FE0DD
:08094D00900258F0121354222D
:100658009002507407F0900088E090024EF09000ED
:1006680084E0FEA3E0FDEDFF900251EEF0A3EFF071
:1006780078027C007D017B017A0079827E007F060A
:100688001204DB900251E0FFA3E090020ECFF0A32A
:10069800EFF090024EE0C313FF900252E02FFF905C
:1006A8000251E03400FE90020EE0FCA3E0FDC39F7F
:1006B800EC9E40030207C5900250E02482F582E4D4
:1006C8003400F583E090024CF0900250E02483F56A
:1006D80082E43400F583E090024DF0EC60030207F9
:1006E800ADED24EF60371470030207831470030222
:1006F80007A1240360030207AD90024DE0FD75F0E9
:10070800B8A4FFAEF090FEFBEEF0A3EFF090FEF978
:10071800EEF0A3EFF0900253EDF00207AD90024D1A
:10072800E030E0047F018002E4FF1216BB90024D26
:10073800E0FFC3135401FEC374019E24FF92C1EF6E
:1007480013135401FFC374019F24FF92C2E0FF13E7
:1007580013135401FEC374019E24FF92C3A2C1B3B4
:10076800E433900249F0A2C2B3E433A3F0A2C3B3C6
:10077800E433A3F0900254EFF0802A90024DE09009
:10078800010DF090024CE0FF90010EF090010DE099
:10079800900256F0A3EFF0800C90024DE090010F0C
:1007A800F0900258F0900250E02402F090020FE01E
:1007B80004F0700690020EE004F002069A7D06121C
:1007C80011C7AD07AC06EC900009F0900008EFF0F7
:1007D8009001027408F0D2C77F057E001215AC4361
:0507E8009A0202135407
:0611C7007B017A007902B1
:0511CD00900210EDF09E
:1011D20074FFA3F0A3F0120501FF900211E0F0A347
:1011E200E06FF0E4FD900211E0FEA3E0FF30E019B1
:1011F200EEC313FEEF13FFEE64A0FEEF6401FF9057
:101202000211EEF0A3EFF0800B900211E0C313F095
:10121200A3E013F00DEDB408CC740129F9E43AFA15
:0E122200900210E014F070AEA3E0FEA3E0FF17
:01123000229B
:02005600AC07F5
:10005800AD041211C774022CF582E43400F583EF65
:10006800F0EEFF74032CF582E43400F583EFF0EC36
:100078002402900102F0D2C77F057E001215AC431E
:020088009A02DA
:01008A002253
:0A0C9D0042025E0000420260000007
:0300A3000212F650
:0612F600C0E0C083C082CD
:1012FC0090025FE004F0700690025EE004F0900251
:10130C005EE07004A3E06464700C90011004F09033
:10131C00025EE4F0A3F0900108E07025900261E019
:10132C0004F07006900260E004F0900260E070043B
:10133C00A3E06464700B900260F0A3F090010804C9
:01134C00F0B0
:07134D00D082D083D0E03212
:100F4C00021420E493A3F8E493A34003F68001F287
:100F5C0008DFF48029E493A3F85407240CC8C333A6
:100F6C00C4540F4420C8834004F456800146F6DF75
:100F7C00E4800B0102040810204080900B99E47E61
:100F8C00019360BCA3FF543F30E509541FFEE4936A
:100F9C00A360010ECF54C025E060A840B8E493A331
:100FAC00FAE493A3F8E493A3C8C582C8CAC583CA5C
:100FBC00F0A3C8C582C8CAC583CADFE9DEE780BE14
:010CA700004C
:10040B00E709F608DFFA8046E709F208DFFA803ED3
:10041B0088828C83E709F0A3DFFA8032E309F608C0
:10042B00DFFA8078E309F208DFFA807088828C8328
:10043B00E309F0A3DFFA806489828A83E0A3F608DC
:10044B00DFFA805889828A83E0A3F208DFFA804CB6
:10045B0080D280FA80C680D4806980F2803380108D
:10046B0080A680EA809A80A880DA80E280CA8033F6
:10047B0089828A83ECFAE493A3C8C582C8CCC5836E
:10048B00CCF0A3C8C582C8CCC583CCDFE9DEE7803E
:10049B000D89828A83E493A3F608DFF9ECFAA9F0BD
:1004AB00EDFB2289828A83ECFAE0A3C8C582C8CC13
:1004BB00C583CCF0A3C8C582C8CCC583CCDFEADE2C
:1004CB00E880DB89828A83E493A3F208DFF980CC8E
:1004DB0088F0EF60010E4E60C388F0ED2402B40487
:1004EB000050B9F582EB2402B4040050AF2323452E
:0604FB00822390045B73F4
:10050100BB010689828A83E0225002E722BBFE02F8
:09051100E32289828A83E493222B
:10051A00BC000BBE0029EF8DF084FFADF022E4CCC5
:10052A00F875F008EF2FFFEE33FEEC33FCEE9DEC8E
:10053A00984005FCEE9DFE0FD5F0E9E4CEFD22EDD4
:10054A00F8F5F0EE8420D21CFEADF075F008EF2F1E
:10055A00FFED33FD4007985006D5F0F222C398FD0F
:05056A000FD5F0EA22AC
:10056F00BB0110E58229F582E5833AF583E0F5F0CA
:10057F00A3E0225009E92582F886F008E622BBFEA7
:10058F000AE92582F8E2F5F008E222E5832AF583ED
:08059F00E993F5F0A3E99322B2
:1000A600E5082411F582E43402F583E00508229080
:1000B600020E300703900211E475F00112061202D7
:1000C60005012000E97F2ED2008018EF540F2490FE
:1000D600D43440D4FF30040BEF24BFB41A005003CD
:1000E6002461FFE50960021509050CE50C7002059F
:1000F6000B30070E90020EE475F001120612EF02A5
:1001060006000200467403D2078003E4C207F5081E
:1001160090020E120629E4F509F50BF50CE50960C7
:10012600077F201200E980F5750AFFC201C200C2EE
:1001360002C203C205C206C2081200B5FF700D3026
:1001460007057F001200FAAF0CAE0B22B4255FC282
:10015600D5C2041200B5FF24D0B40A00501A75F0B7
:100166000A780930D50508B6FF0106C6A426F6208A
:10017600D5047002D20380D924CFB41A00EF5004FC
:10018600C2E5D2040202FBD20180C6D20080C0D2F0
:100196000280BCD2D580BAD20580B47F201200E995
:1001A6002002077401B5090040F11200A6FF1200F3
:1001B600E9020123D208D20680951200A6FB12009E
:1001C600A6FA1200A6F94A4B700679CC7A037BFF91
:1001D60020022EE509602A7E008E827583001205B4
:1001E600D360060EEE650A70F0C2D5EBC0E0EAC039
:1001F600E0E9C0E0EE120342D0E0F9D0E0FAD0E048
:10020600FB120501FF60AAEBC0E0EAC0E0E9C0E02E
:100216001200E9D0E02401F9D0E03400FAD0E0FB86
:10022600E50A0460DCD50AD980877BFF7A03793E2C
:10023600D202809C791080027908C206C208800822
:10024600D2D5790A8004790AC2D5E50A047002F586
:100256000AE4FAFDFEFF1200A6FC7B082001131239
:1002660000A6FD7B1030000A1200A6FE1200A6FFB3
:100276007B20EC3382D592D55013C3E43000069F21
:10028600FFE49EFEE42001039DFDE49CFCE4CBF824
:10029600C201EC700CCFCECDCCE824F8F870F38018
:1002A60017C3EF33FFEE33FEED33FDEC33FCEB33D8
:1002B600FB994002FB0FD8E9EB300105F8D0E0C40A
:1002C60048B201C0E00AEC4D4E4F78207B0070C268
:1002D600EAB50A0040BCC0E0120344D0F0D0E020EA
:1002E6000104C4C0E0C4B201C0F01200D2D0F0D5FF
:1002F600F0EB02012312063201C053023A58019173
:100306004C018D42023E4F02464402464901A64335
:08031600024C55023046023092
:10031E004502304703EC5001952D01992E01BC2B5F
:10032E00019D2301BA2003D52A015548000001B4CE
:10033E003F3F3F00790AA2D5200314300509B910BA
:10034E00020404B9080104A2D520060250010420BB
:10035E0002689202B509005034C0E07F20300319C4
:10036E007F30A20272067205500F12039BC202C2A8
:10037E0006C205C2087F30800F300503E9C0E012C7
:10038E0000E9300503D0E0F9D0E0B509CC3005170F
:10039E007F30B9100C1200E97F583004077F788047
:1003AE0003B908031200E93002057F2D0200E97F30
:1003BE00202008F87F2B2006F322920280CF286E91
:1003CE00756C6C2900D2011200A63001F8C20178BA
:1003DE000930D50108F60201552D50434958120037
:1003EE00A62403B405004001E49003E7931200DA5B
:0D03FE00743A1200DAD20375090402023AC3
:1005A700EF4E6012EF60010EEDBB010B89828A836B
:1005B700F0A3DFFCDEFA2289F05007F709DFFCA978
:0C05C700F022BBFEFCF309DFFCA9F022CF
:1005D300BB010CE58229F582E5833AF583E02250DD
:1005E30006E92582F8E622BBFE06E92582F8E22227
:0D05F300E58229F582E5833AF583E4932241
:10060000BB010689828A83F0225002F722BBFE01D9
:02061000F322D3
:10061200F8E0FBA3A3E0F925F0F0E5821582700271
:070622001583E0FA38F02215
:09062900EBF0A3EAF0A3E9F022D2
:10063200D083D082F8E4937012740193700DA3A357
:1006420093F8740193F5828883E47374029368606B
:06065200EFA3A3A380DF6B
:00000001FF
