:03000000020EDA13
:0C0EDA00787FE4F6D8FD758121020F211D
:10156900D3EF9400EE9400401600000075080B7547
:0F15790009BED509FDD508FAEF1F70E41E80E109
:011588002240
:10008E00D3EF9400EE9400400A000000EF1F70F0D2
:04009E001E80ED22B1
:10161C0043BC807F0A7E0012156953DEFC43DE0C4E
:0A162C0053BCDF53A8DF43DE202289
:10152700E4FDFC53BCF0EF444042BCE5BC30E5FBB6
:1015370053BCDF53BCBFAFBDEFADBEFCEDAE04FF88
:011547002281
:1015480075940275931C7592027591F075960EE468
:10155800F595F5B2F5B175B49EF5B375CA04F5C93C
:011568002260
:10001E003D3D3D3D3D3D3D3D3D3D20636F64652095
:10002E007374617274203D3D3D3D3D3D3D3D3D3D12
:04003E00200D0A0087
:1013C60043BA8012154812163612161C9001117473
:1013D60001F01216731215A9121660121696120053
:1013E600031216A41216861215E6121409D2AF12AB
:1013F600148B7BFF7A00791E1201111210E3120E74
:031406004080F82B
:1014090043BA8090FEB6E0F090FEEDE4F090FEEA7B
:101419007470F0A3F090FEED7411F090FEF2740474
:10142900F0A37451F090FEF0E4F0A37431F090FE53
:10143900B5E04450F090FEFD7480F090FEE0E04489
:0314490001F0228D
:04000300438F1022F5
:10166000438E805389F0758ACD758CD4C28DD28C0F
:03167000D2A922DA
:0A16A400538EBF53890F43891022B3
:1016860053D1DFE4F5D375D2DC43D18043AF40229A
:10167300759A50438E0475D7E875D6FF438E104391
:03168300AF012292
:1016360075AC1043AC4043D10275D5E875D4FF4371
:06164600D10843AF0822A9
:0D000E00E4F5C7F5C5F5C675C380F5C4223D
:1015C80075C78075F50C75C5038FC4EEF5C375C670
:0E15D8005A75C6A57F0A7E0012156902000E24
:1014E30075C78075F50C75C5028FC4EEF5C3AF05DE
:1014F3008FC275C65A75C6A57F0A7E00121569028A
:02150300000ED8
:1015890075C78075F50C75C5018FC4EEF5C375C6B1
:101599005A75C6A57F0A7E00121569AFC202000EF0
:1009CB0060FC011203D503FA04200446046D049560
:1009DB0004BE04E70510053A0565059005BB05E760
:1009EB000613063F066C069906C606F30720074D4D
:1009FB00077A07A707D40800082D0859088508B1FE
:100A0B0008DC09070931095B098409AD09D609FD21
:100A1B000A240A4B0A710A960ABB0ADE0B020B2444
:100A2B000B460B670B870BA70BC60BE40C020C1EBC
:100A3B000C3A0C560C700C8A0CA40CBC0CD40CECA1
:100A4B000D020D190D2E0D430D570D6B0D7E0D90D7
:100A5B000DA20DB40DC50DD50DE50DF50E040E1241
:100A6B000E200E2E0E3B0E480E550E610E6D0E789F
:100A7B000E830E8D0E970EA10EAB0EB40EBD0EC6D1
:100A8B000ECF0ED70EDF0EE70EEF0EF60EFD0F0498
:100A9B000F0B0F110F170F1D0F230F290F2F0F35D3
:100AAB000F3A0F3F0F440F490F4E0F530F580F5C68
:100ABB000F600F650F690F6D0F710F740F780F7C3F
:0E0F6600900212EBF0A3EAF0A3E9F0A3EDF085
:100F7400E4900219F0A3F0900218F0900215E01426
:100F8400FF900218E0FEC39F505A900212E0FBA3A8
:100F9400E0FAA3E0F975F002EEA4F58285F083127D
:100FA400056FFF900216E0FCA3E0FDC39FEC95F0F3
:100FB400402AA3E02401FFE433FEEF25E0FFEE33F3
:100FC400FE8F828E8312056FFFC3ED9FEC95F05068
:100FD4000B900218E0FFA3E4F0A3EFF0900218E0F6
:0C0FE40004F08097900219E0FEA3E0FFEB
:010FF00022DE
:05127F0090020EEFF0EB
:10128400E4900210F0A3F090020FF090020EE0FF41
:10129400121527900211E02FF0900210E03EF0901A
:1012A400020FE004F0E0C3940A40E0900210E0FE74
:1012B400A3E0FF7C007D0A12051A900210EEF0A351
:1012C400EFF07B017A017912900210E0FFA3E09025
:0C12D4000216CFF0A3EFF07D7E020F6643
:100E4000900110E064016003020ED97F0412127F4A
:100E500090010AEFF07F0512127F90010BEFF07FF7
:100E60000612127F90010CEFF07F0A12133E9002DF
:100E700045EEF0A3EFF07F0B12133E900247EEF029
:100E8000A3EFF07F0C12133E900249EEF0A3EFF0B7
:100E90001211B7900111E06401703990010DE0FF6B
:100EA00090010AE0C39F4004D2C18002C2C19001F8
:100EB0000EE0FF90010BE0C39F4004D2C28002C24B
:100EC000C290010FE0FF90010CE0C39F4004D2C329
:0A0ED0008002C2C3E4900110F0227A
:0E169600E490024DF0D2C4D2C3D2C2D2C1221F
:0300530002005652
:10005600C0E0C083C082C0D075D000C00690024EFA
:10006600E0FEA3E0F58BEEF58D90024D7401F0D223
:0E0076008ED2ABD006D0D0D082D083D0E03274
:03001B000214B913
:1014B900C0E0C083C082C0D090024DE0B4010CE40A
:1014C900F0C2C4758BF7758DFF8006D2C4C28EC277
:0A14D900ABD0D0D082D083D0E03237
:10164C00EF75F05AA424B4FEE5F034DC90024EF0B1
:04165C00A3CEF02207
:0A16AE00EFB40103C2A122D2A12271
:1015E6009002457405F0A37450F0A37405F0A3743B
:0B15F60050F0A37405F0A37450F02225
:05133E0090020EEFF02B
:10134300E4A3F0A3F0A3F090020EE0FF12152790A0
:101353000210E02FF090020FE03EF0900211E00443
:10136300F0E0C3940F40E090020FE0FEA3E0FF7CA7
:0E137300007D0F12051A90020FEEF0A3EFF0AE
:011381002249
:040ACB0041010900DC
:1015A900E4900000F0A3F0900082F0900102F0F0C6
:0F15B900A3F0A3F0A3F0A3F0C2C7900108F022A3
:03004300020FF1B8
:100FF100C0E0C083C082C0D075D000C007E59A3080
:10100100E12F539AFD900000E4F0900102E0601A94
:10101100A3E0FF04F074022FF582E43400F583E0CD
:10102100F59B900102E014F08007900103E4F0C207
:10103100C7E59A30E033539AFE900001E0702190A9
:101041000106E0D394804002E4F0900106E024829E
:10105100F582E43400F583E59BF0900106E004F0AD
:10106100900104E4F0A37432F0D007D0D0D082D044
:0410710083D0E03216
:03000B0002144C90
:10144C00C0E0C083C082C0D0900104E07002A3E071
:10145C006024900105E024FFF0900104E034FFF0DB
:10146C00E07002A3E0700F900106E0D394004006F8
:0F147C009000017401F0D0D0D082D083D0E03244
:03008B0002150556
:10150500C0E0C083C082E5AC30E10853ACFD90017A
:1015150009E4F0E5AC30E00353ACFED082D083D0D3
:02152500E032B2
:0B0046008FAD900109E070FA04F02279
:10148B007F107E00121589EFB4FF20900236740393
:10149B00F0A37401F0E4A3F0A37432F0A37403F08F
:0E14AB00A37450F0A3F0A3F0121075020CAF62
:10107500E4FFFE1215C8900236E0FDE4FFFE1214EF
:10108500E3900237E0FD7F017E001214E390023801
:10109500E0FD7F027E001214E3900239E0FD7F033C
:1010A5007E001214E390023AE0FD7F047E001214E4
:1010B500E390023BE0FD7F057E001214E390023CC5
:1010C500E0FD7F067E001214E390023DE0FD7F0700
:0E10D5007E001214E37D587F107E000214E3AB
:100CAF00E4FFFE121589900236EFF0E075F0B8A45C
:100CBF00FF90FEF9E5F0F0A3EFF07F017E00121533
:100CCF0089900237EFF030E0047F018002E4FF12D9
:100CDF0016AE7F027E00121589900238EFF030E0D9
:100CEF0011438F109001117401F0C2C3C2C2C2C16F
:100CFF008010538FEFE4900111F0D2C4D2C3D2C24F
:100D0F00D2C17F047E0012158990023AEFF07F0363
:100D1F007E00121589900239EFF0A3E075F0B8A4A8
:100D2F00FF90FEFBE5F0F0A3EFF0900239E0FF1229
:100D3F00164C7F057E0012158990023BEFF07F065F
:100D4F007E0012158990023CEFF07F077E0012158E
:100D5F008990023DEFF090023BE090010DF0900280
:0A0D6F003CE090010EF0A3EFF0222B
:10160100D2857F027E0012008EC2857F197E001274
:0B1611001569D2857F1E7E0002008E4E
:10115100E4900213F0900212F03085FD7F287E00AA
:1011610012008E30851F2085FD900213E0FF900252
:1011710012E0FEC374079EFEF87401088002C333B7
:10118100D8FC4F801B900213E0FF900212E0FEC3D7
:1011910074079EFEF87401088002C333D8FCF45F23
:1011A100900213F0900212E004F0E0C3940840A909
:0511B100900213E0FFB5
:0111B6002216
:1011B70012160120855D3085FD2085FD12115190A5
:1011C700020EEFF012115190020FEFF01211519031
:1011D7000210EFF0121151900211EFF0121151D2DB
:1011E7008590020FE0FD90020EE0F92DFDE433FC3F
:1011F700900210E0FE7A002DFDEA3CFCA3E02DFDF5
:10120700EA3CFCEFB5050CEAB50408900254EEF091
:03121700A3E9F058
:01121A0022B1
:1010E300900001E064017065F07B017A00798290E1
:1010F3000106E024FEFD12121BAD07AC06900106AB
:10110300E0FB2480F582E43400F583E0FE74812B58
:10111300F582E43400F583E0FBEBFFE4900106F095
:10112300EDB50729ECB50625900082E0B4351EA382
:10113300E024FC600F24FE600E24F6600D240D7085
:0D1143000C020882020ADA020BD41206FA2E
:01115000227C
:100882009002417403F0900086A3E025E0900240BC
:10089200F0900084E0FEA3E0FDEDFF900243EEF055
:1008A200A3EFF09000027435F0A37403F0900240BD
:1008B200E0900004F090020EEEF0A3EFF090024000
:1008C200E0C313FF900244E02FFF900243E03400A4
:1008D200FE90020EE0FCA3E0FDC39FEC9E400302EB
:1008E20009BFE490023FF090023EF0EC600302097F
:1008F2007EED14601A14602414602B14606414607A
:100902006E24057077E490023EF090FEF98040E498
:1009120090023EF020A165A304F08060E490023EC4
:10092200F0900238805190024EE0FEA3E0FFEF24E7
:100932004CFFEE3423FEE434FFFDE434FFFCE47BA1
:100942005AFAF9F812138290023EEFF090FEFBE0A1
:10095200FEA3E0FF7C007DB812051A90023FEFF083
:10096200801A90010EE090023EF090010D8008E4A2
:1009720090023EF090010FE090023FF090023EE0C4
:10098200FF900241E0FE04F074022EF582E434008E
:10099200F583EFF090023FE0FF900241E0FE04F0A9
:1009A20074022EF582E43400F583EFF090020FE03A
:1009B20004F0700690020EE004F00208BF900240BC
:0909C200E02403FD7F03020D791E
:100ADA009002417403F0900086A3E025E090024062
:100AEA00F0900084E0FEA3E0FDEDFF900243EEF0FB
:100AFA00A3EFF09000027435F0A37404F090024062
:100B0A00E0900004F0AC06900240E0F9C313FF90B5
:100B1A000244E02FFF900243E03400FEC3ED9FEC55
:100B2A009E4003020BCBE490023FF090023EF0ECB1
:100B3A007057ED1460221460241460331460351465
:100B4A0060372405704390010AE090023FF090015B
:100B5A000BE090023EF0803190010C800B90025520
:100B6A00E090023EF0900254E090023FF0801A902A
:100B7A00024580089002478003900249E0FAA3E008
:100B8A00FBEA90023EF0A3EBF090023EE0FF9002F7
:100B9A0041E0FE04F074022EF582E43400F583EF9E
:100BAA00F090023FE0FF900241E0FE04F074022E52
:100BBA00F582E43400F583EFF00DBD00010C020B61
:0A0BCA0011E92403FD7F04020D79F8
:100BD400900085E014603414604B14607814700342
:100BE400020C7F147003020C9924056003020CA507
:100BF40090023FE0FD75F0B8A4FF90FEF9E5F0F037
:100C0400A3EFF0900236EDF0020CA590023FE03025
:100C1400E0047F018002E4FF1216AE90023FE090F0
:100C24000237F0807C90023FE0FF30E011438F10E8
:100C34009001117401F0C2C3C2C2C2C18010538FAB
:100C4400EFE4900111F0D2C4D2C3D2C2D2C1900257
:100C540038EFF0804C90023EE0FD90024CF09002A0
:100C64003FE0FC75F0B8A4FF90FEFBE5F0F0A3EFC5
:100C7400F0900239EDF0A3ECF0802690023FE09072
:100C8400010DF090023EE090010EF090010DE09015
:100C9400023BF0800C90023FE090010FF090023D87
:0B0CA400F07D087F06120D790210752C
:1006FA009002427407F0900088E0900240F0900067
:10070A0084E0FEA3E0FDEDFF900243EEF0A3EFF0DC
:10071A0078027C007D017B017A0079827E007F0667
:10072A001204DB900243E0FFA3E090020ECFF0A395
:10073A00EFF0900240E0C313FF900244E02FFF90D5
:10074A000243E03400FE90020EE0FCA3E0FDC39FEA
:10075A00EC9E4003020878900242E02482F582E48B
:10076A003400F583E090023EF0900242E02483F5E3
:10077A0082E43400F583E090023FF0EC6003020863
:10078A0060ED14603414604C14607914700302082C
:10079A003A147003020854240560030208609002A8
:1007AA003FE0FD75F0B8A4FF90FEF9E5F0F0A3EF85
:1007BA00F0900236EDF002086090023FE030E0046B
:1007CA007F018002E4FF1216AE90023FE0900237EA
:1007DA00F002086090023FE0FF30E011438F109072
:1007EA0001117401F0C2C3C2C2C2C18010538FEF9B
:1007FA00E4900111F0D2C4D2C3D2C2D2C19002385D
:10080A00EFF0805290023EE0FF90024CF012164C3C
:10081A0090023FE0FD75F0B8A4FF90FEFBE5F0F012
:10082A00A3EFF090023EE0900239F0A3EDF08026AB
:10083A0090023FE090010DF090023EE090010EF030
:10084A0090010DE090023BF0800C90023FE0900195
:10085A000FF090023DF0900242E02402F090020F65
:10086A00E004F0700690020EE004F002073C7D08F6
:08087A007F10120D79021075C8
:050D7900900210EDF0F6
:100D7E00EF24FC600F24FE604F24F66064240D60A7
:100D8E0003020E2D7B017A007902900210E0FD1213
:100D9E00121B900211EEF0A3EFF0900211E0FEA3F1
:100DAE00E0FD900210E0FC2403F582E43400F583AC
:100DBE00EDF0EEFF74022CF582E43400F583EFF0D3
:100DCE00900210E02402805378027C007D017B01AA
:100DDE007A0079827E007F081204DB900210E08098
:100DEE003A78027C007D017B017A0079827E007F59
:100DFE00061204DB7B017A0079027D0612121B902B
:100E0E000211EEF0A3EFF0900211E0FEA3E09000CD
:100E1E0009F0EE900008F0900210E0900102F0D27E
:100E2E00C77F027E00121569439A027F017E00027F
:020E3E00156934
:05121B00900213EDF04C
:1012200074FFA3F0A3F0120501FF900214E0F0A3F5
:10123000E06FF0E4FD900214E0FEA3E0FF30E0195F
:10124000EEC313FEEF13FFEE64A0FEEF6401FF9008
:101250000214EEF0A3EFF0800B900214E0C313F041
:10126000A3E013F00DEDB408CC740129F9E43AFAC7
:0E127000900213E014F070AEA3E0FEA3E0FFC6
:01127E00224D
:0A0ACF0042025000004202520000F3
:0300A3000212E066
:0612E000C0E0C083C082E3
:1012E600900251E004F07006900250E004F0900283
:1012F60050E07004A3E06464700C90011004F09058
:101306000250E4F0A3F0900108E07025900253E04B
:1013160004F07006900252E004F0900252E070046D
:10132600A3E06464700B900252F0A3F090010804ED
:01133600F0C6
:07133700D082D083D0E03228
:100EE6000213C6E493A3F8E493A34003F68001F249
:100EF60008DFF48029E493A3F85407240CC8C3330D
:100F0600C4540F4420C8834004F456800146F6DFDB
:100F1600E4800B01020408102040809009CBE47E97
:100F2600019360BCA3FF543F30E509541FFEE493D0
:100F3600A360010ECF54C025E060A840B8E493A397
:100F4600FAE493A3F8E493A3C8C582C8CAC583CAC2
:100F5600F0A3C8C582C8CAC583CADFE9DEE780BE7A
:010AD900001C
:10040B00E709F608DFFA8046E709F208DFFA803ED3
:10041B0088828C83E709F0A3DFFA8032E309F608C0
:10042B00DFFA8078E309F208DFFA807088828C8328
:10043B00E309F0A3DFFA806489828A83E0A3F608DC
:10044B00DFFA805889828A83E0A3F208DFFA804CB6
:10045B0080D280FA80C680D4806980F2803380108D
:10046B0080A680EA809A80A880DA80E280CA8033F6
:10047B0089828A83ECFAE493A3C8C582C8CCC5836E
:10048B00CCF0A3C8C582C8CCC583CCDFE9DEE7803E
:10049B000D89828A83E493A3F608DFF9ECFAA9F0BD
:1004AB00EDFB2289828A83ECFAE0A3C8C582C8CC13
:1004BB00C583CCF0A3C8C582C8CCC583CCDFEADE2C
:1004CB00E880DB89828A83E493A3F208DFF980CC8E
:1004DB0088F0EF60010E4E60C388F0ED2402B40487
:1004EB000050B9F582EB2402B4040050AF2323452E
:0604FB00822390045B73F4
:10050100BB010689828A83E0225002E722BBFE02F8
:09051100E32289828A83E493222B
:10051A00BC000BBE0029EF8DF084FFADF022E4CCC5
:10052A00F875F008EF2FFFEE33FEEC33FCEE9DEC8E
:10053A00984005FCEE9DFE0FD5F0E9E4CEFD22EDD4
:10054A00F8F5F0EE8420D21CFEADF075F008EF2F1E
:10055A00FFED33FD4007985006D5F0F222C398FD0F
:05056A000FD5F0EA22AC
:10056F00BB0110E58229F582E5833AF583E0F5F0CA
:10057F00A3E0225009E92582F886F008E622BBFEA7
:10058F000AE92582F8E2F5F008E222E5832AF583ED
:08059F00E993F5F0A3E99322B2
:10138200C2D5E830E70FB2D5E4C39BFBE49AFAE496
:1013920099F9E498F8EC30E717B2D51213B81206AF
:1013A20022E4C39BFBE49AFAE499F9E498F88003F7
:1013B20012062230D50DE4C39FFFE49EFEE49DFD9C
:0413C200E49CFC2289
:1000A600E5082411F582E43402F583E00508229080
:1000B600020E300703900211E475F0011206B40235
:1000C60005012000E97F2ED2008018EF540F2490FE
:1000D600D43440D4FF30040BEF24BFB41A005003CD
:1000E6002461FFE50960021509050CE50C7002059F
:1000F6000B30070E90020EE475F0011206B4EF0203
:1001060005D40200467403D2078003E4C207F5084B
:1001160090020E1206CBE4F509F50BF50CE5096025
:10012600077F201200E980F5750AFFC201C200C2EE
:1001360002C203C205C206C2081200B5FF700D3026
:1001460007057F001200FAAF0CAE0B22B4255FC282
:10015600D5C2041200B5FF24D0B40A00501A75F0B7
:100166000A780930D50508B6FF0106C6A426F6208A
:10017600D5047002D20380D924CFB41A00EF5004FC
:10018600C2E5D2040202FBD20180C6D20080C0D2F0
:100196000280BCD2D580BAD20580B47F201200E995
:1001A6002002077401B5090040F11200A6FF1200F3
:1001B600E9020123D208D20680951200A6FB12009E
:1001C600A6FA1200A6F94A4B700679CC7A037BFF91
:1001D60020022EE509602A7E008E827583001205B4
:1001E600A760060EEE650A70F0C2D5EBC0E0EAC065
:1001F600E0E9C0E0EE120342D0E0F9D0E0FAD0E048
:10020600FB120501FF60AAEBC0E0EAC0E0E9C0E02E
:100216001200E9D0E02401F9D0E03400FAD0E0FB86
:10022600E50A0460DCD50AD980877BFF7A03793E2C
:10023600D202809C791080027908C206C208800822
:10024600D2D5790A8004790AC2D5E50A047002F586
:100256000AE4FAFDFEFF1200A6FC7B082001131239
:1002660000A6FD7B1030000A1200A6FE1200A6FFB3
:100276007B20EC3382D592D55013C3E43000069F21
:10028600FFE49EFEE42001039DFDE49CFCE4CBF824
:10029600C201EC700CCFCECDCCE824F8F870F38018
:1002A60017C3EF33FFEE33FEED33FDEC33FCEB33D8
:1002B600FB994002FB0FD8E9EB300105F8D0E0C40A
:1002C60048B201C0E00AEC4D4E4F78207B0070C268
:1002D600EAB50A0040BCC0E0120344D0F0D0E020EA
:1002E6000104C4C0E0C4B201C0F01200D2D0F0D5FF
:1002F600F0EB0201231206D401C053023A580191D1
:100306004C018D42023E4F02464402464901A64335
:08031600024C55023046023092
:10031E004502304703EC5001952D01992E01BC2B5F
:10032E00019D2301BA2003D52A015548000001B4CE
:10033E003F3F3F00790AA2D5200314300509B910BA
:10034E00020404B9080104A2D520060250010420BB
:10035E0002689202B509005034C0E07F20300319C4
:10036E007F30A20272067205500F12039BC202C2A8
:10037E0006C205C2087F30800F300503E9C0E012C7
:10038E0000E9300503D0E0F9D0E0B509CC3005170F
:10039E007F30B9100C1200E97F583004077F788047
:1003AE0003B908031200E93002057F2D0200E97F30
:1003BE00202008F87F2B2006F322920280CF286E91
:1003CE00756C6C2900D2011200A63001F8C20178BA
:1003DE000930D50108F60201552D50434958120037
:1003EE00A62403B405004001E49003E7931200DA5B
:0D03FE00743A1200DAD20375090402023AC3
:1005A700BB010CE58229F582E5833AF583E0225009
:1005B70006E92582F8E622BBFE06E92582F8E22253
:0D05C700E58229F582E5833AF583E493226D
:1005D400BB010689828A83F0225002F722BBFE0106
:0205E400F32200
:1005E60075F008758200EF2FFFEE33FECD33CDCCCC
:1005F60033CCC58233C5829BED9AEC99E58298404F
:100606000CF582EE9BFEED9AFDEC99FC0FD5F0D62B
:10061600E4CEFBE4CDFAE4CCF9A88222B800C1B955
:100626000059BA002DEC8BF084CFCECDFCE5F0CB93
:10063600F97818EF2FFFEE33FEED33FDEC33FCEBCC
:1006460033FB10D703994004EB99FB0FD8E5E4F987
:10065600FA227818EF2FFFEE33FEED33FDEC33FC74
:10066600C933C910D7059BE99A4007EC9BFCE99A68
:10067600F90FD8E0E4C9FAE4CCFB2275F010EF2FAD
:10068600FFEE33FEED33FDCC33CCC833C810D707AD
:100696009BEC9AE899400AED9BFDEC9AFCE899F8E8
:0E06A6000FD5F0DAE4CDFBE4CCFAE4C8F9227B
:1006B400F8E0FBA3A3E0F925F0F0E58215827002CF
:0706C4001583E0FA38F02273
:0906CB00EBF0A3EAF0A3E9F02230
:1006D400D083D082F8E4937012740193700DA3A3B5
:1006E40093F8740193F5828883E4737402936860C9
:0606F400EFA3A3A380DFC9
:00000001FF
